:020000040800F2
:1000000048050020C101000885290008E7270008ED
:1000100081290008230500089D3100080000000028
:10002000000000000000000000000000D3010008F4
:10003000C507000800000000D7010008C529000816
:10004000DB010008DB010008DB010008DB01000820
:10005000DB010008DB010008DB010008DB01000810
:10006000DB010008DB010008DB010008DB01000800
:10007000DB010008DB010008DB010008DB010008F0
:10008000DB010008DB010008DB010008990500081E
:10009000590500087105000889050008DB01000802
:1000A000DB010008DB010008DB010008DB010008C0
:1000B000DB010008DB010008DB010008DB010008B0
:1000C000DB010008DB010008DB010008DB010008A0
:1000D000DB01000881310008DB010008DB010008BA
:1000E000DB010008DB010008DB010008DB01000880
:1000F000DB010008DB010008DB010008DB01000870
:10010000DB010008DB010008DB010008DB0100085F
:10011000DB010008DB010008DB010008F12A000810
:10012000DB010008DB010008DB010008DB0100083F
:10013000DB010008DB010008DB010008DB0100082F
:10014000DB010008DB010008DB010008DB0100081F
:10015000DB010008DB010008DB010008DB0100080F
:10016000DB010008DB010008DB010008DB010008FF
:10017000DB010008DB010008DB01000800000000D3
:10018000DB010008DB010008DB010008DB010008DF
:10019000DB010008DB010008DB010008DB010008CF
:1001A000DB010008DB010008DB010008DFF80CD0F0
:1001B00000F096F900480047C131000848050020CA
:1001C0000648804706480047FEE7FEE7FEE7FEE7F1
:1001D000FEE7FEE7FEE7FEE7FEE7FEE78D2A000802
:1001E000AD0100082DE9FE4F81EA030404F000444C
:1001F00021F0004100944FF0000B23F0004350EA3F
:1002000001045ED052EA03045BD0C3F30A54C1F385
:100210000A552C44A4F2F3340194A0FB0254C1F318
:10022000130141F48011C3F3130343F4801301FB62
:10023000024400FB034E840A970A44EA815447EAC9
:100240008357A4FB076802958D0A05FB07854FEAD3
:10025000932C04FB0C542705029D4FEA065847EAED
:100260001637B5EB08056EEB070C870E920E47EAC2
:10027000811742EA8312A7FB0201B6EB0B0164EB84
:1002800000042B0D43EA0C335E1844EB1C50DA4695
:100290005146E7FB0201C5F313044FEA0B3343EA6F
:1002A00014534FEA0432019C43EA0603A4F10C0400
:1002B0000294009CCDE900B400F0C4F803B0BDE89E
:1002C000F08F00200146F9E72DE9F04D81EA0304A3
:1002D00004F0004B21F0004514464FF0000A23F0D3
:1002E000004150EA050220D054EA01021DD0C5F3B6
:1002F0000A570246C5F31303C1F31300C1F30A56AC
:1003000040F4801543F48013A7EB0608101BD64673
:1003100008F2FD3873EB050002D308F1010801E093
:1003200092185B41B8F1000F03DA00200146BDE8E6
:10033000F08D00204FF48011064684460EE0171B16
:1003400073EB050705D3121B63EB050306434CEA69
:10035000010C49084FEA300092185B4150EA01074E
:10036000EDD152EA030012D082EA040083EA0501CB
:10037000084305D0101BAB4106D20122002306E042
:1003800000224FF0004302E06FF0010253101AEB1D
:1003900006004CEB085110EB0A0041EB0B01BDE8E5
:1003A000F04D00F040B80EB5C10F80EAE07008448F
:1003B000CA07002140F233438DE80E000A460B467F
:1003C00000F040F803B000BD70B5C1F30A5201F06F
:1003D00000450024C1F3130140F2FF3341F48011C2
:1003E0009A4201DA002070BD40F233439A42A2F2F1
:1003F000334203DC524200F006F800E090402C4308
:10040000F1D0404270BD202A04DB203A21FA02F0EC
:100410000021704721FA02F3D040C2F1200291403E
:1004200008431946704710B5141E73F1000408DA2A
:10043000401C41F1000192185B411A4301D120F0A8
:10044000010010BD2DE9F04D92469B4611B1B1FA65
:1004500081F202E0B0FA80F22032904600F052F8C9
:1004600004460F4640EA0A0041EA0B0153465A4649
:10047000084313D0114653EA010019D0C8F14002D5
:100480005046FFF7C0FF05460E46504659464246C5
:1004900000F038F8084305D0012004E02046394632
:1004A000BDE8F08D0020054346EAE0762C43374353
:1004B0000A986305E40AA0EB08000022FD0A44EA5A
:1004C00047540A3002D500200146E9E7010510191A
:1004D0006941DDE9084500196941BDE8F04DA2E731
:1004E000064C074D06E0E06840F0010394E8070081
:1004F00098471034AC42F6D3FFF75CFEA0340008F6
:10050000C0340008202A04DB203A00FA02F100205F
:1005100070479140C2F1200320FA03F31943904041
:10052000704700BFFEE7000000B58BB000200190CF
:100530000290039004900590069007900120089087
:1005400009900E200A9001A9024800F03DF90BB075
:1005500000BD00002800002010B5044800F0D4F9C8
:100560000021024800F0C4FB10BD0000280000205C
:1005700010B5044800F0C8F90121024800F0B8FBAA
:1005800010BD00002800002010B5024800F0BCF9A2
:1005900010BD00002800002010B5024800F0B4F99A
:1005A00010BD00002800002070B504460D462068EC
:1005B00000F5D87000EB0510006800F00400616BD6
:1005C0008860606B806860B9206800F5D87000EBC7
:1005D0000510006840F2FF7101EA5050616B08603D
:1005E0000BE0206800F5D87000EB051000686FF094
:1005F000604101EAD000616B4860206800F5D87066
:1006000000EB0510006800F00200616BC860206814
:1006100000F5D87000EB0510406800F00F00616B2A
:100620000861206800F5D87000EB05104068C0F341
:100630000720616BC861206800F5D87000EB0510D9
:100640008068616B0875206800F5D87000EB0510B4
:100650008068010A606B4175206800F5D87000EB76
:1006600005108068010C606B8175206800F5D870FA
:1006700000EB05108068000E616BC875206800F5FE
:10068000D87000EB0510C068C1B2606B01762068BD
:1006900000F5D87000EB0510C068010A606B417668
:1006A000206800F5D87000EB0510C068010C606B85
:1006B0008176206800F5D87000EB0510C068000E48
:1006C000616BC8764DB920202168C86020684069F8
:1006D00020F002002168486108E0202021680861BC
:1006E0002068406920F010002168486194F83800C3
:1006F00022281DD12068406920F48070216848615B
:100700002068406920F400702168486120684069D1
:1007100020F48060216848612068406920F400600E
:10072000216848612068406920F4004021684861E0
:1007300094F83800322803D1122084F8380002E0FF
:10074000012084F83800204600F02AFB002070BD0C
:1007500010B504462068406920F001002168486116
:1007600094F8380012281DD12068406920F4807068
:10077000216848612068406920F400702168486160
:100780002068406920F480602168486120684069E1
:1007900020F40060216848612068406920F400402E
:1007A0002168486194F83800322803D1222084F867
:1007B000380002E0012084F83800204600F0F8FC00
:1007C000002010BD00BFFEE730B5034600220C7DBF
:1007D000012000FA04F24648006840F00100444C51
:1007E00020602046006820F47C502060204600688D
:1007F0004C6A40EA04203E4C20603D481C300068B2
:1008000090433B4C1C342060C869D8B938480C3040
:1008100000689043364C0C342060888880B28C8904
:1008200040EA0444324840304D6940F83540088879
:1008300080B20C8940EA04442D4840304D6900EBF9
:10084000C5004460C86901281BD129480C300068E4
:100850001043274C0C342060888880B20C8840EA12
:100860000444234840304D6940F83540888980B2BF
:100870000C8940EA04441E4840304D6900EBC50035
:100880004460886938B91A48001D00689043184CC4
:10089000241D206006E01648001D00681043144C1B
:1008A000241D2060086930B9114814300068904355
:1008B0000F4C143420600869012806D10C4814300C
:1008C000006810430A4C14342060086A012806D1DD
:1008D00007481C3000681043054C1C342060044855
:1008E000006820F00100024C2060002030BD0000B4
:1008F0000066004010B504460248844201D100F071
:1009000058FC10BD280000202DE9F04104460025C8
:10091000002600272068406900F0010018B3206815
:10092000806869490840884201D1012000E0002028
:1009300005462068806865490840884201D1012049
:1009400000E000200646206880686149084088422F
:1009500001D1012000E0002007460DB906B917B10A
:100960002046FFF7F5FE2068C06800F00305206808
:100970004069C0F3400625B11EB100212046FFF7B3
:1009800013FE2068006900F0030520684069C0F389
:10099000001625B11EB101212046FFF705FE206893
:1009A000806900F0010520684069C0F300262068D6
:1009B0004069C0F3C0372DB126B11FB1E06B40F0E4
:1009C0000100E06320688069C0F340052068406949
:1009D000C0F3402620684069C0F3C0372DB126B16E
:1009E0001FB1E06B40F00200E06320688069C0F353
:1009F000800520684069C0F3802620684069C0F304
:100A0000C0372DB126B11FB1E06B40F00400E063A8
:100A10002068806900F0700008B9012000E0002023
:100A2000054620684069C0F3C02620684069C0F3CD
:100A3000C03795BB8EB387B32068806900F070051E
:100A4000402D1BD006DC102D09D0202D0CD0302DD0
:100A500024D10EE0502D16D0602D1FD118E0E06B90
:100A600040F00800E0631AE0E06B40F01000E06343
:100A700015E0E06B40F02000E06310E0E06B40F038
:100A80004000E0630BE0E06B40F08000E06306E0D4
:100A9000E06B40F48070E06301E007E000BF00BF5E
:100AA0002068806920F0700021688861E06B40B1A7
:100AB000042021684860012084F838002046FFF7B0
:100AC00019FFBDE8F08100000300000400030008E6
:100AD0000000031070B50446032600250CB9012060
:100AE00070BD94F8380028B9002084F839002046F9
:100AF00000F0D0F8022084F838002068006820F068
:100B00000200216808602068006840F00100216848
:100B1000086000F0BBFC05460EE000F0B7FC401B8F
:100B20000A2809D9032084F8380000BF002084F87F
:100B3000390000BF0320D3E72068406800F00100BF
:100B40000028EAD02068406800F0010008B90026BB
:100B500092E0A069012806D12068006840F080007A
:100B60002168086005E02068006820F080002168A6
:100B70000860E069012806D12068006840F0400064
:100B80002168086005E02068006820F040002168C6
:100B90000860206A012806D12068006840F0200023
:100BA0002168086005E02068006820F020002168C6
:100BB0000860606A012806D12068006840F01000D3
:100BC0002168086005E02068006820F010002168B6
:100BD0000860A06A012806D12068006840F008007B
:100BE0002168086005E02068006820F0080021689E
:100BF0000860E06A012806D12068006840F004001F
:100C00002168086005E02068006820F00400216881
:100C10000860D4E902010843216908436169084377
:100C20006168491E08432168C8612068006820F097
:100C300001002168086000F029FC05460EE000F084
:100C400025FC401B0A2809D9032084F8380000BF7E
:100C5000002084F8390000BF032041E72068406885
:100C600000F001000028EAD12068406800F001008F
:100C700008B1002600E00126012E06D10020E06325
:100C8000012084F8380000202AE7042084F8380086
:100C9000012025E710B586B0044612492068884235
:100CA0001ED100BF002000900F48006840F0007087
:100CB0000D4908600846006800F00070009000BF11
:100CC00000BF4FF4C050019002200290002003901A
:100CD000032004900920059001A9044800F0BEFA01
:100CE00006B010BD006400404038024000000240E1
:100CF00010B50246002392F83830012B01D0122B98
:100D000049D100BF92F83900012801D1022010BD5D
:100D1000012082F8390000BF92F83800122803D170
:100D2000322082F8380002E0222082F838000020C9
:100D3000D0631068406940F4807014686061106886
:100D4000406940F40070146860611068406940F4C4
:100D50008060146860611068406940F40060146845
:100D600060611068406940F400401468606100BF31
:100D7000002082F8390000BF31B91068406940F0A6
:100D800002001468606108E01068406940F01000DB
:100D90001468606101E00220B9E70020B7E70000B5
:100DA00010B52DED088B04465C4884427BD10121AF
:100DB0005B4800F061FB5B480068022855D15A4847
:100DC000007800F0040000284FD05648407D2B28C2
:100DD00037D15448807DE42833D152490A7EC97DF9
:100DE00042EA012108B2FFF7DEFA41EC1B0B9FED4E
:100DF0004F0B53EC102BFFF767FA41EC1A0B9FEDEA
:100E00004D0B53EC102BFFF7EDF941EC190B9FED57
:100E10004B0B53EC102BFFF7E5F941EC180BFFF7E8
:100E2000D3FA00B2474908804748007840F00100F3
:100E3000454908703C48007820F004003A490870A1
:100E400013E03848407D2C280FD13648807DE428B7
:100E50000BD13D48007820F001003B490870324832
:100E6000007820F00400304908702E4800680128FE
:100E700050D12D48007800F00800A0B12948407DED
:100E80002B2833D12748807DE4282FD12549C97DDF
:100E9000090209B2234A127E41EA0200FFF783FAEF
:100EA00041EC1A0B00E035E09FED200B53EC102BCA
:100EB000FFF70AFA41EC190B9FED1E0B53EC102BB8
:100EC000FFF790F941EC180BFFF77EFA00B21F49CB
:100ED00008801D48007840F002001B490870124845
:100EE000007820F008001049087013E00D48407D9C
:100EF0002C280FD10B48807DE4280BD112480078B4
:100F000020F00200104908700748007820F008001F
:100F100005490870BDEC088B10BD000028000020BA
:100F20000004024020010020090000200000000011
:100F30000000C040000000000070A740000000005A
:100F40000000F0BF120000200A0000201400002062
:100F50002DE9F04104460E460525002720688068EB
:100F600000F08060B0F1806F0DD02068806800F0E4
:100F70000060B0F1006F06D02068806800F08050FB
:100F8000B0F1805F7ED100BF94F83900012802D112
:100F90000220BDE8F081012084F8390000BF94F8F8
:100FA0003800222803D1322084F8380002E01220D1
:100FB00084F838002068806800F08060B0F1806FAD
:100FC00001D1002509E02068806800F00060B0F1E0
:100FD000006F01D1012500E00225206800F5C070F6
:100FE00000EB0510006800F00101206800F5C070FA
:100FF00000EB05100160206B806898B9206800F54F
:10100000C07000EB05100068216BC968226B128864
:1010100041EA42510843216801F5C07101EB051115
:10102000086015E0206800F5C07000EB051000684E
:10103000216B8968226B526841EAC201226BD26837
:1010400011430843216801F5C07101EB05110860E7
:10105000206B007C00F00F00216B0861206800F518
:10106000C07000EB0510406820F00F01206800F50B
:10107000C07000EB05104160206800F5C07000EB07
:10108000051000E088E04068216B09690843216889
:1010900001F5C07101EB05114860206BC07D0106B0
:1010A000206B807D41EA0041206B407D41EA0020B9
:1010B000216B097D0843216801F5C07101EB051121
:1010C0008860206BC07E0106206B807E41EA004173
:1010D000206B407E41EA0020216B097E0843216895
:1010E00001F5C07101EB0511C860206800F5C07002
:1010F00000EB0510006840F00101206800F5C070A9
:1011000000EB0510016000F0C1F9074611E0701C0A
:1011100078B126B100F0BAF9C01BB04209D903205A
:1011200084F8380000BF002084F8390000BF032095
:101130002FE74DB9206880681A490840884201D1DC
:10114000012016E0002014E0012D09D120688068FC
:1011500015490840884201D101200AE0002008E03A
:101160002068806811490840884201D1012000E0D0
:1011700000200028CBD094F83800322803D1222058
:1011800084F8380002E0012084F8380000BF002015
:1011900084F8390000BFFCE6042084F83800012000
:1011A000F7E600000300000400030008000003103D
:1011B000704770B50446002500BF94F83900012837
:1011C00001D1022070BD012084F8390000BF022047
:1011D00084F838002068006820F002002168086068
:1011E00000F054F905460EE000F050F9401B0A28C3
:1011F00009D9032084F8380000BF002084F83900A2
:1012000000BF0320DEE72068406800F002000228EB
:10121000EAD02068406800F00200022806D100BF32
:10122000002084F8390000BF0120CBE7012084F8BA
:10123000380000BF002084F8390000BF00BFC1E7BC
:1012400031B5002400F022F9044600BF00F01EF979
:10125000001B00998842F9D338BD0000F8B502465A
:101260000B460025002400200021E6E0012606FAB6
:1012700001F51E6806EA0504AC4273D15E68022ED1
:1012800002D05E68122E13D1CF0802F1200656F864
:1012900027004E07F70E0F26BE40B0434F07FF0E44
:1012A0001E69BE403043CF0802F1200646F82700F1
:1012B00010684F000326BE40B0431E7906F00306B7
:1012C0004F00BE40304310605E68012E08D05E685B
:1012D000022E05D05E68112E02D05E68122E13D148
:1012E00090684F000326BE40B0434F00DE68BE400A
:1012F00030439060506801268E40B0431E79C6F39B
:1013000000168E4030435060D0684F000326BE4028
:10131000B0434F009E68BE403043D0605E6806F028
:101320008056B6F1805FA8D100BF00260096454EDA
:10133000366846F48046434F3E603E46366806F4C3
:101340008046009600BF00BF3F4E8F0856F827002A
:101350008E07370F0F26BE40B0433C4EB24202D13B
:1013600000262EE068E03A4EB24201D1012628E084
:10137000384EB24201D1022623E0374EB24201D1AB
:1013800003261EE0354EB24201D1042619E0344E48
:10139000B24201D1052614E0324EB24201D10626F6
:1013A0000FE0314EB24201D107260AE02F4EB24281
:1013B00001D1082605E02E4EB24201D1092600E0F7
:1013C0000A268F073F0FBE4030431F4E8F0846F856
:1013D0002700284E3068A0435E6806F48036B6F5D4
:1013E000803F00D12043234E3060361D3068A0433B
:1013F0005E6806F40036B6F5003F00D120431D4E6E
:10140000361D3060361D3068A0435E6806F48016D5
:10141000B6F5801F00D12043164E08363060361DC9
:101420003068A0435E6806F40016B6F5001F00D1D0
:101430002043104E0C363060491C1029FFF416AFC3
:10144000F8BD000044380240083801400000024066
:101450000004024000080240000C0240001002405C
:101460000014024000180240001C0240002002400C
:1014700000240240003C014042694A4042617047FA
:101480000AB1816101E00B04836170470148006883
:10149000704700002000002002480068401C0149FD
:1014A000086070472000002010B50D48006840F427
:1014B00000700B4908600846006840F480600860CE
:1014C0000846006840F480700860032000F088F847
:1014D000002000F007F800F017F8002010BD000011
:1014E000003C024070B5044600F0B4F94FF47A7144
:1014F000B0FBF1F5284600F042FC00222146501EC8
:1015000000F030F8002070BD10B5062000F068F83B
:10151000002211466FF00B0000F024F80022114663
:101520006FF00A0000F01EF8002211466FF009006B
:1015300000F018F800221146101F00F013F80022E6
:101540001146501E00F00EF810BD00BF00F01F0243
:10155000012191404209920002F1E022C2F80011FB
:1015600000BF70472DE9F05F80460D461646002704
:1015700001F00CFA074639462A46334601F00700C7
:10158000C0F1070ABAF1040F02D94FF0040A01E0D2
:10159000C0F1070AD14600F1040ABAF1070F02D2DE
:1015A0004FF0000A01E0A0F1030AD4464FF0010A0F
:1015B0000AFA09FAAAF1010A0AEA020A0AFA0CFA74
:1015C0004FF0010B0BFA0CFBABF1010B0BEA030B19
:1015D0004AEA0B042146404601F0E0F9BDE8F09FDD
:1015E00000BF00F00702064B19684FF6FF031940D1
:1015F000044B0B4343EA0221014B196000BF7047C3
:101600000CED00E00000FA0538B5002400BF002012
:1016100000902348006840F0805021490860084647
:10162000006800F08050009000BF00BF012001045E
:1016300091FAA1F1B1FA81F11A4A42F82100FFF7BB
:1016400025FF044607E0FFF721FF001BB0F57A7F76
:1016500001D9032038BD1448406800F48030B0F54B
:10166000803FF0D10120410491FAA1F1B1FA81F15A
:101670000C4A42F82100FFF709FF044607E0FFF794
:1016800005FF001BB0F57A7F01D90320E2E7064889
:10169000406800F40030B0F5003FF0D10020D9E7F9
:1016A0004038024000000E420070004070470000C9
:1016B00070B504460D4600266448006800F00F002F
:1016C000A84209D261490D700846006800F00F0079
:1016D000A84201D0012070BD207800F0020002284D
:1016E00007D15B48006820F0F000A1680843584922
:1016F0000860207800F00100002877D06068012899
:1017000007D1534808380068C0F34040B8B90120F9
:10171000E1E76068022802D06068032807D14C48DE
:1017200008380068C0F3406048B90120D3E7484852
:1017300008380068C0F3400008B90120CBE74448EE
:10174000006820F003006168084341490860FFF722
:101750009DFE06466068012810D108E0FFF796FE5E
:10176000801B41F28831884201D90320B3E7384811
:10177000006800F00C000428F0D137E0606802280F
:1017800010D108E0FFF782FE801B41F288318842C9
:1017900001D903209FE72E48006800F00C000828BC
:1017A000F0D123E06068032810D108E0FFF76EFE57
:1017B000801B41F28831884201D903208BE72448FD
:1017C000006800F00C000328F0D10FE008E0FFF7FC
:1017D0005DFE801B41F28831884201D903207AE7FF
:1017E0001B48006800F00C000028F0D11748006882
:1017F00000F00F00A84209D914490D70084600688E
:1018000000F00F00A84201D0012064E7207800F02A
:101810000400042807D10E48006820F4E050E16875
:1018200008430B490860207800F00800082808D118
:101830000748006820F46040216940EAC10004497B
:1018400008600020FFF74EFE002044E7003C024005
:101850000838024010B500F045F80949096801F060
:10186000F001F02292FAA2F2B2FA82F2D140054AD5
:10187000515CC840044908600846006810BD00007B
:1018800008380240903400082400002010B5FFF70B
:10189000E1FF0749096801F4E0514FF4E05292FA80
:1018A000A2F2B2FA82F2D140024A515CC84010BDA5
:1018B000083802409034000810B5FFF7CBFF074905
:1018C000096801F460414FF4604292FAA2F2B2FA60
:1018D00082F2D140024A515CC84010BD0838024033
:1018E0009034000870B50021002200230020274C0E
:1018F000246804F00C0424B1042C04D0082C41D139
:1019000003E0234840E023483EE0204C241F2468A5
:1019100004F03F011D4C241F246804F4800484B1AA
:101920001C4CB4FBF1F5194C241F246847F6C07613
:10193000344096FAA6F6B6FA86F6F44005FB04F2B1
:101940000FE0134CB4FBF1F5104C241F246847F64C
:10195000C076344096FAA6F6B6FA86F6F44005FB51
:1019600004F20A4C241F246804F440344FF4403538
:1019700095FAA5F5B5FA85F5EC40641C6300B2FB59
:10198000F3F001E0024800BF00BF70BD083802401C
:101990000024F40040787D0110B50648006800F08E
:1019A0008000802805D1FFF781FE80200149891C35
:1019B000087010BD0C38024038B504460025207868
:1019C00000F00100002848D0DE48006800F00C005C
:1019D00004280DD0DB48006800F00C00082811D165
:1019E000D848001F006800F48000B0F5800F09D1CE
:1019F000D44808380068C0F3404070B3606860BBEA
:101A0000012038BD2079CF49891F0870606890B1E6
:101A1000FFF73CFD054606E0FFF738FD401B642854
:101A200001D90320EDE7C74808380068C0F34040FB
:101A30000028F1D011E0FFF729FD054606E0FFF789
:101A400025FD401B642801D90320DAE7BD4808388A
:101A50000068C0F340400028F1D1207800F0020077
:101A6000022869D1B748006800F00C0058B1B548A9
:101A7000006800F00C00082821D1B248001F00685F
:101A800000F48000D8B9AF4808380068C0F34000BF
:101A900020B1E068012801D00120B2E7A948083848
:101AA000006820F0F800F82292FAA2F2B2FA82F26C
:101AB000216991400843A349083908603CE0E06887
:101AC00028B30120A0490860FFF7E0FC054606E0C6
:101AD000FFF7DCFC401B022801D9032091E799485D
:101AE00008380068C0F340000028F1D09548083855
:101AF000006820F0F800F82292FAA2F2B2FA82F21C
:101B00002169914008438F490839086014E000209A
:101B10008D490860FFF7BAFC054606E0FFF7B6FC02
:101B2000401B022801D903206BE78648083800686B
:101B3000C0F340000028F1D1207800F00800082808
:101B40002CD16069A8B1012080490860FFF79EFC94
:101B5000054606E0FFF79AFC401B022801D9032046
:101B60004FE778486C300068C0F340000028F1D09F
:101B700014E0002075490860FFF788FC054606E080
:101B8000FFF784FC401B022801D9032039E76D4888
:101B90006C300068C0F340000028F1D1207800F0DC
:101BA0000400042857D100BF002000906548383059
:101BB000006840F08050634938310860084600688A
:101BC00000F08050009000BF00BF6148006840F402
:101BD00080705F490860FFF759FC054606E0FFF793
:101BE00055FC401B022801D903200AE75848006829
:101BF00000F480700028F2D0207A524968310870D1
:101C0000A068A0B1FFF742FC054608E0FFF73EFCE4
:101C1000401B41F28831884201D90320F1E649484E
:101C200068300068C0F340000028EFD013E0FFF7F1
:101C30002DFC054608E0FFF729FC401B41F28831E6
:101C4000884201D90320DCE63E4868300068C0F3D2
:101C500040000028EFD1A069F0B33A48006800F0D6
:101C60000C00082869D0A069022850D1002036490C
:101C70000866FFF70BFC054606E0FFF707FC401B74
:101C8000022801D90320BCE62E4808380068C0F3BA
:101C900040600028F1D1D4E90701084347F6C0723B
:101CA00092FAA2F2B2FA82F2616A914008430122EA
:101CB000A16AC2EB51014FF4403292FAA2F2B2FA99
:101CC00082F2914008434FF0706292FAA2F2B2FAA7
:101CD00082F2E16A914000E031E008431949091FAE
:101CE0000860012018490866FFF7D0FB054606E0AA
:101CF000FFF7CCFB401B022801D9032081E61148E5
:101D000008380068C0F340600028F1D017E00020D8
:101D10000D490866FFF7BAFB054606E0FFF7B6FB7C
:101D2000401B022801D903206BE6064808380068EA
:101D3000C0F340600028F1D101E0012061E60020FD
:101D40005FE600000838024000004742800E47422C
:101D500000700040042808D14FF0E021096941F0EB
:101D600004014FF0E022116107E04FF0E021096922
:101D700021F004014FF0E02211617047704770B507
:101D800004462546681EB0F1807F01D301200FE094
:101D9000681E4FF0E02148610F214FF0FF3000F046
:101DA000FDFD00204FF0E021886107200861002040
:101DB00070BD10B5FFF7E2FF10BD704770470246D7
:101DC00000BF92F83800012801D10220704701209D
:101DD00082F8380000BF022082F83900106840689D
:101DE00020F0700013685860106840680B68184352
:101DF000136858601068806820F08000136898604D
:101E0000106880684B68184313689860012082F856
:101E1000390000BF002082F8380000BF00BFD5E7BE
:101E200010B504460CB9012010BD94F8390028B94A
:101E3000002084F83800204600F00CF8022084F8D6
:101E40003900211D206800F05BFE012084F8390074
:101E50000020E9E708B50A4A016891420FD100BFA6
:101E6000002100910749096841F02001054A1160ED
:101E70001146096801F02001009100BF00BF08BDB4
:101E8000001400404038024001460868C06840F035
:101E900001000A68D0600868006840F001000A6824
:101EA000106000207047704710B504462068006934
:101EB000C0F34000D8B12068C068C0F34000B0B1A2
:101EC0006FF0020021680861012020762068806997
:101ED00000F0030018B12046FFF7E5FF05E02046BB
:101EE00000F0ADF8204600F0ABF800202076206826
:101EF0000069C0F38000D8B12068C068C0F38000DA
:101F0000B0B16FF0040021680861022020762068DB
:101F1000806900F4407018B12046FFF7C4FF05E067
:101F2000204600F08CF8204600F08AF80020207649
:101F300020680069C0F3C000D8B12068C068C0F351
:101F4000C000B0B16FF0080021680861042020765D
:101F50002068C06900F0030018B12046FFF7A3FF16
:101F600005E0204600F06BF8204600F069F80020FC
:101F7000207620680069C0F30010D8B12068C068DE
:101F8000C0F30010B0B16FF01000216808610820A4
:101F900020762068C06900F4407018B12046FFF731
:101FA00082FF05E0204600F04AF8204600F048F89D
:101FB000002020762068006900F0010058B12068F8
:101FC000C06800F0010030B16FF0010021680861C5
:101FD000204600F037F820680069C0F3C01058B1FF
:101FE0002068C068C0F3C01030B16FF08000216875
:101FF00008612046FFF7E1FE20680069C0F3801009
:1020000058B12068C068C0F3801030B16FF0400054
:1020100021680861204600F0CFF920680069C0F30C
:10202000401058B12068C068C0F3401030B16FF064
:102030002000216808612046FFF7C0FE10BD7047F0
:102040007047000010B52DED088B0446C648844249
:102050007ED1C6480078012817D1C5480088401CA9
:10206000C34908800846008864280EDB0020C14967
:102070000880C1490880BD490870BD490880BF4833
:10208000007840F00300BD490870BD48007800F0BA
:10209000010000282FD1B948007800F00400002882
:1020A00029D1B648007800F0010020BBB54800787F
:1020B00008B30220B4490860486000208860C86006
:1020C00008200861002008752A21AF484175E421E5
:1020D00081750021C1750176E42141760021817668
:1020E000C1760121A948FEF733FFA448007840F0EB
:1020F0000400A2490870A248007800F002000028FD
:1021000030D19E48007800F0080058BB9B4800780A
:1021100000F0020030BB9B48007818B301209A49B8
:102120000860486000208860C860082008610020BE
:1021300008752A2194484175E42181750021C175F3
:102140000176E421417600218176C176012100E00B
:1021500006E18E48FEF7FCFE8848007840F0080053
:10216000864908708548007800F00100002870D08A
:10217000022085490860486000208860C860082007
:102180000861002008751A217F484175002181757A
:10219000C17576480078012803D101217A4801767B
:1021A00002E000217848017606217748417671489F
:1021B000B0F90000FEF7F7F841EC1B0B9FED740B34
:1021C00053EC102BFEF70EF841EC1A0B9FED720B3F
:1021D00053EC102BFEF778F841EC190B9FED700BC8
:1021E00053EC102BFDF7FEFF41EC180BFEF7ECF85B
:1021F000010A654881765F48B0F90000FEF7D3F820
:1022000041EC1B0B9FED620B53EC102BFDF7EAFF2B
:1022100041EC1A0B9FED600B53EC102BFEF754F8BA
:1022200041EC190B9FED5E0B53EC102BFDF7DAFF21
:1022300041EC180BFEF7C8F8C1B25348C176012132
:102240005248FEF785FE4D48007820F001004B49CA
:1022500008704A48007800F00200002860D0012091
:1022600049490860486000208860C860082008610B
:10227000002008751A214448417500218175C175F7
:102280003A480078012803D101213F48017602E055
:1022900000213D48017606213B4841763648B0F999
:1022A0000000FEF780F841EC1A0B9FED3B0B53EC5E
:1022B000102BFEF709F841EC190B9FED390B53EC8D
:1022C000102BFDF78FFF41EC180BFEF77DF8010A8C
:1022D0002D4881762848B0F90000FEF764F841ECFB
:1022E0001A0B9FED2D0B53EC102BFDF7EDFF41EC7E
:1022F000180B9FED2B0B53EC102BFDF773FF41ECEC
:10230000190BFEF761F8C1B21F48C17601211F48C1
:10231000FEF71EFE1948007820F0020017490870E9
:1023200021480078012803D01F480078022817D1DF
:102330001E480088401C1D49088008460088142853
:102340000EDB002003E00021194A1154401C102824
:10235000F9DB0020174908701349087013490880F9
:10236000BDEC088B10BD0000680000200B000020B1
:102370000C0000200E0000201000002009000020AA
:102380000A00002002000020040100202800002094
:10239000000000000000F0BF000000000070A74037
:1023A000000000000000C0400500002000000020E8
:1023B000E40000200400002070477047F8B5044690
:1023C000002500262068006800F001052068C0682C
:1023D00000F480767DB176B100BF002000902068C7
:1023E0000068009020684068009000BF00BFE06B6C
:1023F00040F00100E06320680068C0F340052068F9
:10240000406900F001067DB176B100BF0020009068
:1024100020680068009020684068009000BF00BFFE
:10242000E06B40F00400E06320680068C0F38005C2
:102430002068406900F001067DB176B100BF002040
:10244000009020680068009020684068009000BFFD
:1024500000BFE06B40F00200E06320680068C0F35A
:10246000C0052068406900F001067DB176B100BF6B
:10247000002000902068006800902068406800906C
:1024800000BF00BFE06B40F00800E0632068006818
:10249000C0F340152068C06800F020061DB116B1D9
:1024A000204600F0AFFB20680068C0F3C01520682C
:1024B000C06800F080061DB116B1204600F0AAFDEC
:1024C00020680068C0F380152068C06800F04006EE
:1024D0001DB116B1204600F085FBE06B38B120201D
:1024E00084F8390084F83A002046FFF766FFF8BD0B
:1024F00010B504460CB9012010BDA06900B100E080
:1025000000BF94F8390028B9002084F8380020462C
:1025100000F028F8242084F839002068C06820F4EE
:1025200000502168C860204600F0C0FB20680069A8
:1025300020F49040216808612068406920F02A005A
:10254000216848612068C06840F400502168C86074
:102550000020E063202084F8390084F83A0000204D
:10256000CAE7000010B586B00446124920688842C8
:102570001ED100BF002000900F48006840F01000FE
:102580000D4908600846006800F01000009000BF88
:1025900000BF4FF4C0600190022002900120039020
:1025A000032004900720059001A90448FEF756FE79
:1025B00006B010BD00100140443802400000024047
:1025C00010B5034693F83A0020282FD101B10AB97B
:1025D000012010BD00BF93F83800012801D102206E
:1025E000F7E7012083F8380000BF99629A85DA8501
:1025F0000020D863222083F83A001868C06840F4AD
:1026000080701C68E0601868406940F001001C6838
:10261000606100BF002083F8380000BF1868C06800
:1026200040F020001C68E0600020D2E70220D0E7E4
:1026300001463648814268D135480078B0B93548FE
:10264000007855280ED1334802783348334B1B7835
:10265000C25432480078401C304A107001202C4A85
:10266000107041E065202A4A10703DE0284800784B
:10267000012816D127480078AA280ED125480278CB
:102680002548264B1B78C25424480078401C234A16
:10269000107002201E4A107026E065201C4A10703F
:1026A00022E01B48007802281ED11C4800780B2825
:1026B0000FDB184800780A2807D1184800780B2843
:1026C00003D10320124A10700EE06520104A1070EA
:1026D0000AE0104802781048104B1B78C2540F488B
:1026E0000078401C0D4A10700948007865280CD10C
:1026F000002003E00022084B1A54401C1028F9DB8C
:102700000020064A1070024A10707047A400002092
:102710000500002003000020E40000200400002049
:102720002DE9F04104460D461646984694F83900C6
:10273000202855D105B116B90120BDE8F08100BFB0
:1027400094F83800012801D10220F6E7012084F82E
:10275000380000BF0020E063212084F83900A684FF
:10276000E68428E0E08C401EE084A068B0F5805F3D
:1027700014D1434600228021204600F07FFC08B19E
:102780000320DAE72F463888C0F308002168486044
:10279000206908B9AD1C0EE06D1C0CE04346002218
:1027A0008021204600F06AFC08B10320C5E715F837
:1027B000010B21684860E08C0028D3D143460022F9
:1027C0004021204600F05AFC08B10320B5E7202044
:1027D00084F8390000BF002084F8380000BFACE75F
:1027E0000220AAE7704700BFFEE7000010B50C48C2
:1027F0000C4908600620486000210A488160C160D9
:102800004FF4E02101614FF4A00141610021816199
:10281000C161016241628162C162FEF75BF910BD74
:10282000006400402800002000B587B000BF0020F1
:1028300001901E48006840F080001C49086008466E
:10284000006800F08000019000BF00BF00BF0020C2
:1028500001900846006840F00200086008460068E1
:1028600000F00200019000BF00BF00BF00200190F7
:102870000846006840F0010008600846006800F063
:102880000100019000BF00BF012203210848FEF7AC
:10289000F7FD032002900120039000200490059092
:1028A00002A90348FEF7DAFC07B000BD3038024049
:1028B0000004024010B5012200211320FEF752FE51
:1028C0001320FEF742FE022200211420FEF74AFEEA
:1028D0001420FEF73AFE032200211520FEF742FEE7
:1028E0001520FEF732FE042200211620FEF73AFEE4
:1028F0001620FEF72AFE002201212520FEF732FED7
:102900002520FEF722FE032201213720FEF72AFEB2
:102910003720FEF71AFE10BD1CB50B480B490860A6
:1029200042F2283048600021084881606421C1607B
:10293000FFF776FA202000900020019069460348B6
:10294000FFF73DFA1CBD00000014004068000020A5
:1029500010B50948094908604FF4E130486000218A
:1029600006488160C16001610C21416100218161E3
:10297000C161FFF7BDFD10BD00100140A4000020A3
:1029800000BFFEE710B5FFF707F810BD024800686A
:10299000C0F30220704700000CED00E010B50028E5
:1029A00007DA0A07140E054A00F00F031B1FD45460
:1029B00003E00A07130E024A135410BD18ED00E09D
:1029C00000E400E010B5FEF767FDFFF7F2F910BD77
:1029D00010B592B000BF002000902A48006840F077
:1029E0008050284908600846006800F08050009038
:1029F00000BF00BF00BF002000902348006840F4E3
:102A00004040214908600846006800F440400090BA
:102A100000BF00BF01200690079002200C904105E6
:102A20000D9119210E914FF4B4710F910221109163
:102A30000421119106A8FEF7BFFFFEF7E5FD0F2068
:102A4000019002200290002003904FF4A0500490C7
:102A50004FF480500590052101A8FEF729FEFEF7EE
:102A6000F9FE4FF47A71B0FBF1F42046FFF787F9D5
:102A70000420FFF76FF900221146501EFEF772FD89
:102A800012B010BD40380240007000401448006889
:102A900040F47000124908601248006840F00100DC
:102AA0001049086000200F49083108600D4800688F
:102AB0000D4908400B4908600C48091D0860081FB3
:102AC000006820F48020091F0860002005490C31AF
:102AD00008604FF0006002498039086070470000CC
:102AE00088ED00E000380240FFFFF6FE10300024C1
:102AF00010B50248FFF7D8F910BD000068000020AB
:102B0000002202682C4B98420ED0B0F1804F0BD0BF
:102B10002A4B984208D02A4B984205D0294B98421C
:102B200002D0294B984201D1012300E000231BB1C0
:102B300022F070024B681A431F4B984220D0B0F12C
:102B4000804F1DD01D4B98421AD01D4B984217D074
:102B50001C4B984214D01C4B984211D01B4B9842EE
:102B60000ED01B4B98420BD01A4B984208D01A4BF0
:102B7000984205D0194B984202D0194B984201D186
:102B8000012300E000231BB122F44072CB681A43FA
:102B900002608B68C3620B688362074B984202D065
:102BA000094B984201D1012300E000230BB10B69CE
:102BB00003630123436170470000014000040040AB
:102BC00000080040000C00400004014000400140AB
:102BD000004401400048014000180040001C004033
:102BE0000020004010B504462068C06820F0400076
:102BF0002168C860202084F839002046FFF7F2FDE4
:102C0000002010BD70B5044694F83A0022284AD13D
:102C1000A068B0F5805F13D1A56A206940B920682B
:102C20004068C0F308002880A06A801CA06219E0F8
:102C300020684068C0B22880A06A401CA06211E0F1
:102C4000206938B920684068C1B2A26A501CA062ED
:102C5000117007E02068406800F07F01A26A501CF4
:102C6000A0621170E08D401E80B2E085C8B9206876
:102C7000C06820F020002168C8602068C06820F487
:102C800080702168C8602068406920F001002168D8
:102C90004861202084F83A002046FFF7C9FC002054
:102CA00070BD0020FCE70220FAE700002DE9F041AA
:102CB000044600252068056925F44055E068054371
:102CC000206805612068C56849F20C608543216968
:102CD000A068084361690843E16908430543206827
:102CE000C5602068456925F44075A06905432068E2
:102CF0004561E069B0F5004F7ED1C4492068884243
:102D000003D0C349206888425DD1FEF7D5FD00EBB2
:102D1000C00101EB001061684900B0FBF1F06421D3
:102D2000B0FBF1F00601FEF7C7FD00EBC00101EBBF
:102D3000001061684900B0FBF1F7FEF7BDFD00EB44
:102D4000C00101EB001061684900B0FBF1F06421A3
:102D5000B0FBF1F000EBC00101EB0010A7EB80002D
:102D6000322101EBC0006421B0FBF1F000F0F8006B
:102D700006EB4006FEF7A0FD00EBC00101EB0010E2
:102D800061684900B0FBF1F7FEF796FD00EBC0016A
:102D900001EB001061684900B0FBF1F06421B0FB69
:102DA000F1F000EBC00101EB0010A7EB8000322135
:102DB00001EBC0006421B0FBF1F000F007003044EB
:102DC0002168886020E1FEF761FD00EBC00101EBA6
:102DD000001061684900B0FBF1F06421B0FBF1F034
:102DE0000601FEF753FD00EBC00101EB0010616826
:102DF0004900B0FBF1F700E045E0FEF747FD00EBCE
:102E0000C00101EB001061684900B0FBF1F06421E2
:102E1000B0FBF1F000EBC00101EB0010A7EB80006C
:102E2000322101EBC0006421B0FBF1F000F0F800AA
:102E300006EB4006FEF72AFD00EBC00101EB001097
:102E400061684900B0FBF1F7FEF720FD00EBC0011F
:102E500001EB001061684900B0FBF1F06421B0FBA8
:102E6000F1F000EBC00101EB0010A7EB8000322174
:102E700001EBC0006421B0FBF1F000F0070030442A
:102E800021688860C0E061492068884203D06049B9
:102E9000206888425CD1FEF70FFD00EBC00101EB1A
:102EA000001061688900B0FBF1F6FEF705FD00EB4C
:102EB000C00101EB001061688900B0FBF1F06421F2
:102EC000B0FBF1F000EBC00101EB0010A6EB8000BD
:102ED000322101EB00106421B0FBF1F000F0F006AC
:102EE000FEF7EAFC00EBC00101EB0010616889000D
:102EF000B0FBF1F06421B0FBF1F006EB0016FEF739
:102F0000DBFC00EBC00101EB001061688900B0FB45
:102F1000F1F7FEF7D1FC00EBC00101EB0010616896
:102F20008900B0FBF1F06421B0FBF1F000EBC001CF
:102F300001EB0010A7EB8000322101EB00106421AF
:102F4000B0FBF1F000F00F003044216888605BE0D6
:102F5000FEF79CFC00EBC00101EB001061688900EA
:102F6000B0FBF1F6FEF792FC00EBC00101EB0010A4
:102F700061688900B0FBF1F06421B0FBF1F000EB77
:102F8000C00101EB0010A6EB8000322101EB001024
:102F90006421B0FBF1F000F0F006FEF777FC00EBE7
:102FA000C00101EB001061688900B0FBF1F0642101
:102FB000B0FBF1F006EB0016FEF768FC00EBC00179
:102FC00001EB001061688900B0FBF1F7FEF75EFCD1
:102FD00000EBC00101EB001061688900B0FBF1F06B
:102FE0006421B0FBF1F000EBC00101EB0010A7EB96
:102FF0008000322101EB00106421B0FBF1F000F001
:103000000F00304421688860BDE8F0810010014065
:1030100000140140014691F8390021282CD188681C
:10302000B0F5805F0FD10A6A1088C0F308000B6802
:103030005860086918B9086A801C086209E0086AC3
:10304000401C086205E00B6A581C086218780B687F
:103050005860C88C401E80B2C88458B90868C068DF
:1030600020F080000B68D8600868C06840F040001D
:103070000B68D860002070470220FCE72DE9F04182
:1030800004460E4617461D464FF00008FEF7FEF9AF
:10309000804677BB2FE0681C60B32DB1FEF7F6F9D0
:1030A000A0EB0800A84226D92068C06820F0800064
:1030B0002168C8602068C06820F020002168C860CE
:1030C0002068C06820F480702168C860206840696A
:1030D00020F0010021684861202084F8390084F83C
:1030E0003A0000BF002084F8380000BF0320BDE88C
:1030F000F0810BE0FFE7206800683040B04201D16A
:10310000012000E000200028C5D037E02CE0681C3A
:1031100050B32DB1FEF7BAF9A0EB0800A84223D9AD
:103120002068C06820F080002168C8602068C068FE
:1031300020F020002168C8602068C06820F48070FA
:103140002168C8602068406920F00100216848615A
:10315000202084F8390084F83A0000BF002084F869
:10316000380000BF0320C2E7206800683040B0424A
:1031700001D1012000E000200028C8D10020B6E7DE
:1031800010B50448FFF71AF9012203490148FFF777
:1031900017FA10BDA40000200300002000BFFEE7C6
:1031A00002E008C8121F08C1002AFAD17047704710
:1031B000002001E001C1121F002AFBD1704700006E
:1031C000FEF772F9FFF704FCFFF72EFBFFF700FC98
:1031D000FFF70CFBFFF7BCFBFFF79EFBFFF76AFB5B
:1031E00092489349486393480863FDF79DF900218D
:1031F0008F48FDF77DFD01218D48FDF779FD012206
:103200008D498E48FFF7DCF98D48FEF73DFE8D486D
:10321000007800283ED102208649086048600020DE
:103220008860C86008200861002008751A2181485C
:103230004175022181750021C175C42101760A21E1
:1032400041768176C17601217948FDF781FE012022
:1032500078490860486000208860C86008200861DC
:10326000002008751A2173484175022181750021DB
:10327000C175C42101760A2141768176C17601218A
:103280006B48FDF765FE4FF4FA70FDF7D9FF01209A
:103290006C490870C8E06C480078032850D16B482E
:1032A000007800F0030000284AD169488078694915
:1032B00008706748C078487065480079887064482D
:1032C0004079C870084690ED000ABDEEC00A10EEC5
:1032D000100A00B2604908805D4880795D49087035
:1032E0005B48C07948705A48007A88705848407ADC
:1032F000C870084690ED000ABDEEC00A10EE100A34
:1033000000B2564908805248807A5549087000201A
:1033100003E000214E4A1154401C1028F9DB002024
:10332000504908704849087001204F4908704748C3
:10333000007840F003004549087000204B490880A0
:103340004748007830B1012808D002280AD0032865
:1033500010D10BE00020464908700FE001204449DD
:1033600008700BE002204249087007E00320404942
:10337000087003E0FF203E49087000BF00BF3D48D1
:103380000078032839D13C480078B0BB55203B4930
:103390000870AA2048703A48B0F9000000EE100A00
:1033A000B8EEC00A374880ED000A007888703548CA
:1033B0004078C8703348807808713248C0784871C6
:1033C0003148B0F9000000EE100AB8EEC00A2D48EE
:1033D00080ED000A007888712A484078C871294831
:1033E000807808722748C07848722148007888722F
:1033F0000A20C8720120204908701F48007801285F
:1034000012D102212148FEF737F802230C221B4972
:103410000A48FFF785F90020174908701548007819
:1034200020F003001349087035E700002001002058
:10343000280000200401002003000020A400002038
:103440006800002002000020050000200900002084
:10345000E4000020180000200E00002010000020D2
:1034600016000020040000200B0000200C000020AB
:10347000170000200A00002008000020F4000020AF
:10348000120000201C000020140000200004024054
:1034900000000000010203040102030406070809FA
:1034A000C03400080000002028000000A0310008FF
:1034B000E83400082800002020050000B031000892
:1034C00000000000000000000000000000000000FC
:1034D00000000000000000000000000000000000EC
:0834E000000000000024F400CC
:04000005080001AD41
:00000001FF
