:020000040800F2
:1000000048050020C1010008352B0008932900088D
:10001000312B0008230500083D32000800000000D5
:10002000000000000000000000000000D3010008F4
:10003000C507000800000000D7010008752B000864
:10004000DB010008DB010008DB010008DB01000820
:10005000DB010008DB010008DB010008DB01000810
:10006000DB010008DB010008DB010008DB01000800
:10007000DB010008DB010008DB010008DB010008F0
:10008000DB010008DB010008DB010008990500081E
:10009000590500087105000889050008DB01000802
:1000A000DB010008DB010008DB010008DB010008C0
:1000B000DB010008DB010008DB010008DB010008B0
:1000C000DB010008DB010008DB010008DB010008A0
:1000D000DB0100082D320008DB010008DB0100080D
:1000E000DB010008DB010008DB010008DB01000880
:1000F000DB010008DB010008DB010008DB01000870
:10010000DB010008DB010008DB010008DB0100085F
:10011000DB010008DB010008DB010008A12C00085E
:10012000DB010008DB010008DB010008DB0100083F
:10013000DB010008DB010008DB010008DB0100082F
:10014000DB010008DB010008DB010008DB0100081F
:10015000DB010008DB010008DB010008DB0100080F
:10016000DB010008DB010008DB010008DB010008FF
:10017000DB010008DB010008DB01000800000000D3
:10018000DB010008DB010008DB010008DB010008DF
:10019000DB010008DB010008DB010008DB010008CF
:1001A000DB010008DB010008DB010008DFF80CD0F0
:1001B00000F096F900480047613200084805002029
:1001C0000648804706480047FEE7FEE7FEE7FEE7F1
:1001D000FEE7FEE7FEE7FEE7FEE7FEE73D2C000850
:1001E000AD0100082DE9FE4F81EA030404F000444C
:1001F00021F0004100944FF0000B23F0004350EA3F
:1002000001045ED052EA03045BD0C3F30A54C1F385
:100210000A552C44A4F2F3340194A0FB0254C1F318
:10022000130141F48011C3F3130343F4801301FB62
:10023000024400FB034E840A970A44EA815447EAC9
:100240008357A4FB076802958D0A05FB07854FEAD3
:10025000932C04FB0C542705029D4FEA065847EAED
:100260001637B5EB08056EEB070C870E920E47EAC2
:10027000811742EA8312A7FB0201B6EB0B0164EB84
:1002800000042B0D43EA0C335E1844EB1C50DA4695
:100290005146E7FB0201C5F313044FEA0B3343EA6F
:1002A00014534FEA0432019C43EA0603A4F10C0400
:1002B0000294009CCDE900B400F0C4F803B0BDE89E
:1002C000F08F00200146F9E72DE9F04D81EA0304A3
:1002D00004F0004B21F0004514464FF0000A23F0D3
:1002E000004150EA050220D054EA01021DD0C5F3B6
:1002F0000A570246C5F31303C1F31300C1F30A56AC
:1003000040F4801543F48013A7EB0608101BD64673
:1003100008F2FD3873EB050002D308F1010801E093
:1003200092185B41B8F1000F03DA00200146BDE8E6
:10033000F08D00204FF48011064684460EE0171B16
:1003400073EB050705D3121B63EB050306434CEA69
:10035000010C49084FEA300092185B4150EA01074E
:10036000EDD152EA030012D082EA040083EA0501CB
:10037000084305D0101BAB4106D20122002306E042
:1003800000224FF0004302E06FF0010253101AEB1D
:1003900006004CEB085110EB0A0041EB0B01BDE8E5
:1003A000F04D00F040B80EB5C10F80EAE07008448F
:1003B000CA07002140F233438DE80E000A460B467F
:1003C00000F040F803B000BD70B5C1F30A5201F06F
:1003D00000450024C1F3130140F2FF3341F48011C2
:1003E0009A4201DA002070BD40F233439A42A2F2F1
:1003F000334203DC524200F006F800E090402C4308
:10040000F1D0404270BD202A04DB203A21FA02F0EC
:100410000021704721FA02F3D040C2F1200291403E
:1004200008431946704710B5141E73F1000408DA2A
:10043000401C41F1000192185B411A4301D120F0A8
:10044000010010BD2DE9F04D92469B4611B1B1FA65
:1004500081F202E0B0FA80F22032904600F052F8C9
:1004600004460F4640EA0A0041EA0B0153465A4649
:10047000084313D0114653EA010019D0C8F14002D5
:100480005046FFF7C0FF05460E46504659464246C5
:1004900000F038F8084305D0012004E02046394632
:1004A000BDE8F08D0020054346EAE0762C43374353
:1004B0000A986305E40AA0EB08000022FD0A44EA5A
:1004C00047540A3002D500200146E9E7010510191A
:1004D0006941DDE9084500196941BDE8F04DA2E731
:1004E000064C074D06E0E06840F0010394E8070081
:1004F00098471034AC42F6D3FFF75CFE3C35000859
:100500005C350008202A04DB203A00FA02F10020C2
:1005100070479140C2F1200320FA03F31943904041
:10052000704700BFFEE7000000B58BB000200190CF
:100530000290039004900590069007900120089087
:1005400009900E200A9001A9024800F03DF90BB075
:1005500000BD00002C00002010B5044800F0CCF9CC
:100560000021024800F0BCFB10BD00002C00002060
:1005700010B5044800F0C0F90121024800F0B0FBBA
:1005800010BD00002C00002010B5024800F0B4F9A6
:1005900010BD00002C00002010B5024800F0ACF99E
:1005A00010BD00002C00002070B504460D462068E8
:1005B00000F5D87000EB0510006800F00400616BD6
:1005C0008860606B806860B9206800F5D87000EBC7
:1005D0000510006840F2FF7101EA5050616B08603D
:1005E0000BE0206800F5D87000EB051000686FF094
:1005F000604101EAD000616B4860206800F5D87066
:1006000000EB0510006800F00200616BC860206814
:1006100000F5D87000EB0510406800F00F00616B2A
:100620000861206800F5D87000EB05104068C0F341
:100630000720616BC861206800F5D87000EB0510D9
:100640008068616B0875206800F5D87000EB0510B4
:100650008068010A606B4175206800F5D87000EB76
:1006600005108068010C606B8175206800F5D870FA
:1006700000EB05108068000E616BC875206800F5FE
:10068000D87000EB0510C068C1B2606B01762068BD
:1006900000F5D87000EB0510C068010A606B417668
:1006A000206800F5D87000EB0510C068010C606B85
:1006B0008176206800F5D87000EB0510C068000E48
:1006C000616BC8764DB920202168C86020684069F8
:1006D00020F002002168486108E0202021680861BC
:1006E0002068406920F010002168486194F83800C3
:1006F00022281DD12068406920F48070216848615B
:100700002068406920F400702168486120684069D1
:1007100020F48060216848612068406920F400600E
:10072000216848612068406920F4004021684861E0
:1007300094F83800322803D1122084F8380002E0FF
:10074000012084F83800204600F022FB002070BD14
:1007500010B504462068406920F001002168486116
:1007600094F8380012281DD12068406920F4807068
:10077000216848612068406920F400702168486160
:100780002068406920F480602168486120684069E1
:1007900020F40060216848612068406920F400402E
:1007A0002168486194F83800322803D1222084F867
:1007B000380002E0012084F83800204600F003FEF3
:1007C000002010BD00BFFEE730B5034600220C7DBF
:1007D000012000FA04F24648006840F00100444C51
:1007E00020602046006820F47C502060204600688D
:1007F0004C6A40EA04203E4C20603D481C300068B2
:1008000090433B4C1C342060C869D8B938480C3040
:1008100000689043364C0C342060888880B28C8904
:1008200040EA0444324840304D6940F83540088879
:1008300080B20C8940EA04442D4840304D6900EBF9
:10084000C5004460C86901281BD129480C300068E4
:100850001043274C0C342060888880B20C8840EA12
:100860000444234840304D6940F83540888980B2BF
:100870000C8940EA04441E4840304D6900EBC50035
:100880004460886938B91A48001D00689043184CC4
:10089000241D206006E01648001D00681043144C1B
:1008A000241D2060086930B9114814300068904355
:1008B0000F4C143420600869012806D10C4814300C
:1008C000006810430A4C14342060086A012806D1DD
:1008D00007481C3000681043054C1C342060044855
:1008E000006820F00100024C2060002030BD0000B4
:1008F00000660040704700002DE9F04104460025E5
:10090000002600272068406900F0010018B3206825
:10091000806869490840884201D1012000E0002038
:1009200005462068806865490840884201D1012059
:1009300000E000200646206880686149084088423F
:1009400001D1012000E0002007460DB906B917B11A
:100950002046FFF7FDFE2068C06800F00305206810
:100960004069C0F3400625B11EB100212046FFF7C3
:100970001BFE2068006900F0030520684069C0F391
:10098000001625B11EB101212046FFF70DFE20689B
:10099000806900F0010520684069C0F300262068E6
:1009A0004069C0F3C0372DB126B11FB1E06B40F0F4
:1009B0000100E06320688069C0F340052068406959
:1009C000C0F3402620684069C0F3C0372DB126B17E
:1009D0001FB1E06B40F00200E06320688069C0F363
:1009E000800520684069C0F3802620684069C0F314
:1009F000C0372DB126B11FB1E06B40F00400E063B9
:100A00002068806900F0700008B9012000E0002033
:100A1000054620684069C0F3C02620684069C0F3DD
:100A2000C03795BB8EB387B32068806900F070052E
:100A3000402D1BD006DC102D09D0202D0CD0302DE0
:100A400024D10EE0502D16D0602D1FD118E0E06BA0
:100A500040F00800E0631AE0E06B40F01000E06353
:100A600015E0E06B40F02000E06310E0E06B40F048
:100A70004000E0630BE0E06B40F08000E06306E0E4
:100A8000E06B40F48070E06301E007E000BF00BF6E
:100A90002068806920F0700021688861E06B40B1B7
:100AA000042021684860012084F838002046FFF7C0
:100AB00021FFBDE8F08100000300000400030008EE
:100AC0000000031070B50446032600250CB9012070
:100AD00070BD94F8380028B9002084F83900204609
:100AE00000F0D0F8022084F838002068006820F078
:100AF0000200216808602068006840F00100216859
:100B0000086000F087FD05460EE000F083FD401B05
:100B10000A2809D9032084F8380000BF002084F88F
:100B2000390000BF0320D3E72068406800F00100CF
:100B30000028EAD02068406800F0010008B90026CB
:100B400092E0A069012806D12068006840F080008A
:100B50002168086005E02068006820F080002168B6
:100B60000860E069012806D12068006840F0400074
:100B70002168086005E02068006820F040002168D6
:100B80000860206A012806D12068006840F0200033
:100B90002168086005E02068006820F020002168D6
:100BA0000860606A012806D12068006840F01000E3
:100BB0002168086005E02068006820F010002168C6
:100BC0000860A06A012806D12068006840F008008B
:100BD0002168086005E02068006820F008002168AE
:100BE0000860E06A012806D12068006840F004002F
:100BF0002168086005E02068006820F00400216892
:100C00000860D4E902010843216908436169084387
:100C10006168491E08432168C8612068006820F0A7
:100C200001002168086000F0F5FC05460EE000F0C8
:100C3000F1FC401B0A2809D9032084F8380000BFC2
:100C4000002084F8390000BF032041E72068406895
:100C500000F001000028EAD12068406800F001009F
:100C600008B1002600E00126012E06D10020E06335
:100C7000012084F8380000202AE7042084F8380096
:100C8000012025E710B586B0044612492068884245
:100C90001ED100BF002000900F48006840F0007097
:100CA0000D4908600846006800F00070009000BF21
:100CB00000BF4FF4C050019002200290002003902A
:100CC000032004900920059001A9044800F08AFB44
:100CD00006B010BD006400404038024000000240F1
:100CE00010B50246002392F83830012B01D0122BA8
:100CF00049D100BF92F83900012801D1022010BD6E
:100D0000012082F8390000BF92F83800122803D180
:100D1000322082F8380002E0222082F838000020D9
:100D2000D0631068406940F4807014686061106896
:100D3000406940F40070146860611068406940F4D4
:100D40008060146860611068406940F40060146855
:100D500060611068406940F400401468606100BF41
:100D6000002082F8390000BF31B91068406940F0B6
:100D700002001468606108E01068406940F01000EB
:100D80001468606101E00220B9E70020B7E70000C5
:100D900010B52DED088B0446614884427ED10121B7
:100DA000604800F02DFC6048006802285BD15F4875
:100DB000007800F00400002855D05B48407D2B28C7
:100DC0003DD15948807DE42839D15948007800F058
:100DD000010098BB54490A7EC97D42EA012108B24C
:100DE000FFF7E1FA41EC1B0B9FED520B53EC102B7C
:100DF000FFF76AFA41EC1A0B9FED500B53EC102BE6
:100E0000FFF7F0F941EC190B9FED4E0B53EC102B53
:100E1000FFF7E8F941EC180BFFF7D6FA00B24B499F
:100E200008804348007840F00100414908703F487D
:100E3000007820F004003D49087014E0FFE73A48CC
:100E4000407D2C280FD13848807DE4280BD13848CC
:100E5000007820F00100364908703448007820F00E
:100E600004003249087030480068012854D12F48E6
:100E7000007800F0080000284ED02B48407D2B2839
:100E800036D12948807DE42832D12948007800F005
:100E9000020068BB24490A7EC97D00E03CE042EACA
:100EA000012108B2FFF77FFA41EC1A0B9FED210BED
:100EB00053EC102BFFF708FA41EC190B9FED1F0BB9
:100EC00053EC102BFFF78EF941EC180BFFF77CFA6F
:100ED00000B21F4908801648007840F0020014490B
:100EE00008701248007820F008001049087013E0DC
:100EF0000D48407D2C280FD10B48807DE4280BD174
:100F00000B48007820F00200094908700748007873
:100F100020F0080005490870BDEC088B10BD0000EA
:100F20002C00002000040240240100200B000020BF
:100F30000C000020000000000000C0400000000085
:100F40000070A740000000000000F0BF1400002067
:100F5000160000202DE9F04104460E460525002725
:100F60002068806800F08060B0F1806F0DD020684C
:100F7000806800F00060B0F1006F06D020688068E3
:100F800000F08050B0F1805F7ED100BF94F839004E
:100F9000012802D10220BDE8F081012084F8390047
:100FA00000BF94F83800222803D1322084F838009A
:100FB00002E0122084F838002068806800F0806029
:100FC000B0F1806F01D1002509E02068806800F051
:100FD0000060B0F1006F01D1012500E0022520681A
:100FE00000F5C07000EB0510006800F001012068FA
:100FF00000F5C07000EB05100160206B806898B9A7
:10100000206800F5C07000EB05100068216BC9680E
:10101000226B128841EA42510843216801F5C071F0
:1010200001EB0511086015E0206800F5C07000EBC9
:1010300005100068216B8968226B526841EAC20181
:10104000226BD26811430843216801F5C07101EB9E
:1010500005110860206B007C00F00F00216B086117
:10106000206800F5C07000EB0510406820F00F010B
:10107000206800F5C07000EB05104160206800F5A5
:10108000C07000EB051000E088E04068216B096942
:101090000843216801F5C07101EB05114860206B20
:1010A000C07D0106206B807D41EA0041206B407DC0
:1010B00041EA0020216B097D0843216801F5C071D8
:1010C00001EB05118860206BC07E0106206B807EDD
:1010D00041EA0041206B407E41EA0020216B097EFD
:1010E0000843216801F5C07101EB0511C860206853
:1010F00000F5C07000EB0510006840F001012068A9
:1011000000F5C07000EB0510016000F083FA07469F
:1011100011E0701C78B126B100F07CFAC01BB0421F
:1011200009D9032084F8380000BF002084F8390072
:1011300000BF03202FE74DB9206880681A49084096
:10114000884201D1012016E0002014E0012D09D1D0
:101150002068806815490840884201D101200AE0D2
:10116000002008E02068806811490840884201D1C9
:10117000012000E000200028CBD094F8380032286D
:1011800003D1222084F8380002E0012084F83800DE
:1011900000BF002084F8390000BFFCE6042084F87A
:1011A00038000120F7E600000300000400030008F7
:1011B0000000031010B5014605220868806800F0A1
:1011C0008060B0F1806F0DD00868806800F000602A
:1011D000B0F1006F06D00868806800F08050B0F170
:1011E000805F7DD100BF91F83900012801D1022034
:1011F00010BD012081F8390000BF0868806800F048
:101200008060B0F1806F01D1002209E00868806839
:1012100000F00060B0F1006F01D1012200E0022275
:10122000086800F5C07000EB0210006800F00103D0
:10123000086800F5C07000EB02100360086B80685E
:1012400098B9086800F5C07000EB021000680B6BDD
:10125000DB680C6B248843EA445318430B6803F59E
:10126000C07303EB0213186015E0086800F5C07046
:1012700000EB021000680B6B9B680C6B646843EA20
:10128000C4030C6BE468234318430B6803F5C07375
:1012900003EB02131860086B007C00F00F000B6B6F
:1012A0001861086800F5C07000EB0210406820F07B
:1012B0000F03086800F5C07000EB02104360086877
:1012C00000F5C07000EB02104368086B006903432F
:1012D000086800F5C07000EB02104360086B00E086
:1012E0006AE0C07D0306086B807D43EA0043086B1B
:1012F000407D43EA00200B6B1B7D18430B6803F510
:10130000C07303EB02139860086BC07E0306086B82
:10131000807E43EA0043086B407E43EA0023086B6B
:10132000007E0343086800F5C07000EB0210C36044
:1013300091F83800222803D1322081F8380002E0E9
:10134000122081F838000020C86300BF81F83900FE
:1013500000BF0868406940F480700B6858610868F5
:10136000406940F400700B6858610868406940F4B7
:1013700080600B6858610868406940F400600B6841
:1013800058610868406940F400400B68586108687B
:10139000406940F001000B685861086800F5C070B2
:1013A00000EB0210006840F00103086800F5C0700F
:1013B00000EB0210036004E0042081F838000120F3
:1013C00016E7002014E7704731B5002400F022F939
:1013D000044600BF00F01EF9001B00998842F9D3B3
:1013E00038BD0000F8B502460B4600250024002059
:1013F0000021E6E0012606FA01F51E6806EA05046A
:10140000AC4273D15E68022E02D05E68122E13D1F8
:10141000CF0802F1200656F827004E07F70E0F26D8
:10142000BE40B0434F07FF0E1E69BE403043CF0899
:1014300002F1200646F8270010684F000326BE4040
:10144000B0431E7906F003064F00BE4030431060E3
:101450005E68012E08D05E68022E05D05E68112EEF
:1014600002D05E68122E13D190684F000326BE4052
:10147000B0434F00DE68BE403043906050680126A4
:101480008E40B0431E79C6F300168E403043506044
:10149000D0684F000326BE40B0434F009E68BE4058
:1014A0003043D0605E6806F08056B6F1805FA8D108
:1014B00000BF00260096454E366846F48046434FEE
:1014C0003E603E46366806F48046009600BF00BF88
:1014D0003F4E8F0856F827008E07370F0F26BE4065
:1014E000B0433C4EB24202D100262EE068E03A4EB4
:1014F000B24201D1012628E0384EB24201D1022683
:1015000023E0374EB24201D103261EE0354EB242EF
:1015100001D1042619E0344EB24201D1052614E06F
:10152000324EB24201D106260FE0314EB24201D115
:1015300007260AE02F4EB24201D1082605E02E4EC2
:10154000B24201D1092600E00A268F073F0FBE40B4
:1015500030431F4E8F0846F82700284E3068A043BE
:101560005E6806F48036B6F5803F00D12043234EF6
:101570003060361D3068A0435E6806F40036B6F56C
:10158000003F00D120431D4E361D3060361D3068AF
:10159000A0435E6806F48016B6F5801F00D1204394
:1015A000164E08363060361D3068A0435E6806F47B
:1015B0000016B6F5001F00D12043104E0C363060E7
:1015C000491C1029FFF416AFF8BD00004438024052
:1015D00008380140000002400004024000080240B8
:1015E000000C0240001002400014024000180240AB
:1015F000001C02400020024000240240003C014048
:1016000042694A40426170470AB1816101E00B04BE
:101610008361704701480068704700002400002083
:1016200002480068401C01490860704724000020FF
:1016300010B50D48006840F400700B49086008467A
:10164000006840F4806008600846006840F48070DC
:101650000860032000F088F8002000F007F800F090
:1016600017F8002010BD0000003C024070B5044691
:1016700000F0B4F94FF47A71B0FBF1F5284600F0B0
:1016800042FC00222146501E00F030F8002070BDC0
:1016900010B5062000F068F8002211466FF00B002C
:1016A00000F024F8002211466FF00A0000F01EF846
:1016B000002211466FF0090000F018F800221146D0
:1016C000101F00F013F800221146501E00F00EF813
:1016D00010BD00BF00F01F0201219140420992009D
:1016E00002F1E022C2F8001100BF70472DE9F05F5F
:1016F00080460D461646002701F020FA0746394677
:101700002A46334601F00700C0F1070ABAF1040F78
:1017100002D94FF0040A01E0C0F1070AD14600F1F6
:10172000040ABAF1070F02D24FF0000A01E0A0F15B
:10173000030AD4464FF0010A0AFA09FAAAF1010A8B
:101740000AEA020A0AFA0CFA4FF0010B0BFA0CFB38
:10175000ABF1010B0BEA030B4AEA0B0421464046AE
:1017600001F0F4F9BDE8F09F00BF00F00702064B5E
:1017700019684FF6FF031940044B0B4343EA02215B
:10178000014B196000BF70470CED00E00000FA0546
:1017900038B5002400BF002000902348006840F0C6
:1017A0008050214908600846006800F08050009091
:1017B00000BF00BF0120010491FAA1F1B1FA81F14B
:1017C0001A4A42F82100FFF725FF044607E0FFF719
:1017D00021FF001BB0F57A7F01D9032038BD1448E2
:1017E000406800F48030B0F5803FF0D10120410422
:1017F00091FAA1F1B1FA81F10C4A42F82100FFF708
:1018000009FF044607E0FFF705FF001BB0F57A7FEC
:1018100001D90320E2E70648406800F40030B0F543
:10182000003FF0D10020D9E74038024000000E42CE
:10183000007000407047000070B504460D46002659
:101840006448006800F00F00A84209D261490D7099
:101850000846006800F00F00A84201D0012070BDCA
:10186000207800F00200022807D15B48006820F0D1
:10187000F000A168084358490860207800F0010092
:10188000002877D06068012807D1534808380068DD
:10189000C0F34040B8B90120E1E76068022802D0F7
:1018A0006068032807D14C4808380068C0F34060DE
:1018B00048B90120D3E7484808380068C0F3400021
:1018C00008B90120CBE74448006820F003006168B4
:1018D000084341490860FFF79DFE064660680128FD
:1018E00010D108E0FFF796FE801B41F28831884254
:1018F00001D90320B3E73848006800F00C00042841
:10190000F0D137E06068022810D108E0FFF782FECE
:10191000801B41F28831884201D903209FE72E487D
:10192000006800F00C000828F0D123E0606803286C
:1019300010D108E0FFF76EFE801B41F2883188422B
:1019400001D903208BE72448006800F00C0003282D
:10195000F0D10FE008E0FFF75DFE801B41F2883117
:10196000884201D903207AE71B48006800F00C0088
:101970000028F0D11748006800F00F00A84209D9EC
:1019800014490D700846006800F00F00A84201D00D
:10199000012064E7207800F00400042807D10E48F5
:1019A000006820F4E050E16808430B4908602078A3
:1019B00000F00800082808D10748006820F46040BB
:1019C000216940EAC100044908600020FFF74EFE8B
:1019D000002044E7003C02400838024010B500F007
:1019E00045F80949096801F0F001F02292FAA2F2E3
:1019F000B2FA82F2D140054A515CC84004490860FD
:101A00000846006810BD0000083802402C35000868
:101A10002800002010B5FFF7E1FF0749096801F42D
:101A2000E0514FF4E05292FAA2F2B2FA82F2D140BF
:101A3000024A515CC84010BD083802402C350008ED
:101A400010B5FFF7CBFF0749096801F460414FF477
:101A5000604292FAA2F2B2FA82F2D140024A515C9A
:101A6000C84010BD083802402C35000870B5002170
:101A7000002200230020274C246804F00C0424B129
:101A8000042C04D0082C41D103E0234840E0234833
:101A90003EE0204C241F246804F03F011D4C241F0D
:101AA000246804F4800484B11C4CB4FBF1F5194C97
:101AB000241F246847F6C076344096FAA6F6B6FA94
:101AC00086F6F44005FB04F20FE0134CB4FBF1F58D
:101AD000104C241F246847F6C076344096FAA6F6C8
:101AE000B6FA86F6F44005FB04F20A4C241F24687B
:101AF00004F440344FF4403595FAA5F5B5FA85F570
:101B0000EC40641C6300B2FBF3F001E0024800BF4C
:101B100000BF70BD083802400024F40040787D0109
:101B200010B50648006800F08000802805D1FFF756
:101B300081FE80200149891C087010BD0C380240CC
:101B400038B504460025207800F00100002848D070
:101B5000DE48006800F00C0004280DD0DB48006867
:101B600000F00C00082811D1D848001F006800F4CC
:101B70008000B0F5800F09D1D44808380068C0F360
:101B8000404070B3606860BB012038BD2079CF4908
:101B9000891F0870606890B1FFF73CFD054606E0BC
:101BA000FFF738FD401B642801D90320EDE7C74843
:101BB00008380068C0F340400028F1D011E0FFF77A
:101BC00029FD054606E0FFF725FD401B642801D9E5
:101BD0000320DAE7BD4808380068C0F34040002819
:101BE000F1D1207800F00200022869D1B7480068DE
:101BF00000F00C0058B1B548006800F00C0008284F
:101C000021D1B248001F006800F48000D8B9AF4865
:101C100008380068C0F3400020B1E068012801D016
:101C20000120B2E7A9480838006820F0F800F8223F
:101C300092FAA2F2B2FA82F2216991400843A349D2
:101C4000083908603CE0E06828B30120A04908603A
:101C5000FFF7E0FC054606E0FFF7DCFC401B02282E
:101C600001D9032091E7994808380068C0F3400083
:101C70000028F1D095480838006820F0F800F822D4
:101C800092FAA2F2B2FA82F22169914008438F4996
:101C90000839086014E000208D490860FFF7BAFC9D
:101CA000054606E0FFF7B6FC401B022801D90320D9
:101CB0006BE7864808380068C0F340000028F1D17F
:101CC000207800F0080008282CD16069A8B1012014
:101CD00080490860FFF79EFC054606E0FFF79AFC86
:101CE000401B022801D903204FE778486C30006878
:101CF000C0F340000028F1D014E0002075490860CE
:101D0000FFF788FC054606E0FFF784FC401B02282D
:101D100001D9032039E76D486C300068C0F34000FA
:101D20000028F1D1207800F00400042857D100BF2A
:101D30000020009065483830006840F080506349CA
:101D4000383108600846006800F08050009000BFFD
:101D500000BF6148006840F480705F490860FFF789
:101D600059FC054606E0FFF755FC401B022801D947
:101D700003200AE75848006800F480700028F2D079
:101D8000207A524968310870A068A0B1FFF742FC80
:101D9000054608E0FFF73EFC401B41F288318842CF
:101DA00001D90320F1E6494868300068C0F34000DB
:101DB0000028EFD013E0FFF72DFC054608E0FFF701
:101DC00029FC401B41F28831884201D90320DCE61E
:101DD0003E4868300068C0F340000028EFD1A06999
:101DE000F0B33A48006800F00C00082869D0A069F8
:101DF000022850D1002036490866FFF70BFC054643
:101E000006E0FFF707FC401B022801D90320BCE6CF
:101E10002E4808380068C0F340600028F1D1D4E9AA
:101E20000701084347F6C07292FAA2F2B2FA82F2B0
:101E3000616A914008430122A16AC2EB51014FF44B
:101E4000403292FAA2F2B2FA82F2914008434FF085
:101E5000706292FAA2F2B2FA82F2E16A914000E074
:101E600031E008431949091F086001201849086634
:101E7000FFF7D0FB054606E0FFF7CCFB401B02282E
:101E800001D9032081E6114808380068C0F340609A
:101E90000028F1D017E000200D490866FFF7BAFBD3
:101EA000054606E0FFF7B6FB401B022801D90320D8
:101EB0006BE6064808380068C0F340600028F1D19E
:101EC00001E0012061E600205FE6000008380240E2
:101ED00000004742800E474200700040042808D1AD
:101EE0004FF0E021096941F004014FF0E022116157
:101EF00007E04FF0E021096921F004014FF0E022F2
:101F000011617047704770B504462546681EB0F1F0
:101F1000807F01D301200FE0681E4FF0E02148616F
:101F20000F214FF0FF3000F011FE00204FF0E021B4
:101F3000886107200861002070BD10B5FFF7E2FF3F
:101F400010BD70477047024600BF92F83800012864
:101F500001D102207047012082F8380000BF022022
:101F600082F839001068406820F0700013685860EB
:101F7000106840680B6818431368586010688068E0
:101F800020F0800013689860106880684B681843E0
:101F900013689860012082F8390000BF002082F8A1
:101FA000380000BF00BFD5E710B504460CB90120CA
:101FB00010BD94F8390028B9002084F83800204674
:101FC00000F00CF8022084F83900211D206800F090
:101FD0006FFE012084F839000020E9E708B50A4ABD
:101FE000016891420FD100BF0021009107490968A3
:101FF00041F02001054A11601146096801F02001F5
:10200000009100BF00BF08BD0014004040380240EE
:1020100001460868C06840F001000A68D06008689E
:10202000006840F001000A681060002070477047A7
:1020300010B5044620680069C0F34000D8B120689C
:10204000C068C0F34000B0B16FF0020021680861C1
:10205000012020762068806900F0030018B1204636
:10206000FFF7E5FF05E0204600F0ADF8204600F060
:10207000ABF80020207620680069C0F38000D8B15A
:102080002068C068C0F38000B0B16FF00400216820
:102090000861022020762068806900F4407018B141
:1020A0002046FFF7C4FF05E0204600F08CF82046EC
:1020B00000F08AF80020207620680069C0F3C00094
:1020C000D8B12068C068C0F3C000B0B16FF008009C
:1020D00021680861042020762068C06900F00300B0
:1020E00018B12046FFF7A3FF05E0204600F06BF88B
:1020F000204600F069F80020207620680069C0F3CF
:102100000010D8B12068C068C0F30010B0B16FF003
:10211000100021680861082020762068C06900F45A
:10212000407018B12046FFF782FF05E0204600F01E
:102130004AF8204600F048F8002020762068006920
:1021400000F0010058B12068C06800F0010030B113
:102150006FF0010021680861204600F037F8206820
:102160000069C0F3C01058B12068C068C0F3C01047
:1021700030B16FF08000216808612046FFF7E1FE72
:1021800020680069C0F3801058B12068C068C0F3AF
:10219000801030B16FF0400021680861204600F0E7
:1021A00011FA20680069C0F3401058B12068C06877
:1021B000C0F3401030B16FF0200021680861204664
:1021C000FFF7C0FE10BD70477047000010B52DED41
:1021D000088B0446E14884427ED1E148007801281A
:1021E00017D1E0480088401CDE4908800846008876
:1021F00064280EDB0020DC490880DC490880D849CF
:102200000870D8490880DA48007840F00300D849BF
:102210000870D848007800F0010000282CD1D4487C
:10222000007800F00400002826D1D348007818B3C5
:102230000220D2490860486000208860C8600820F9
:102240000861002008752A21CC484175E421817578
:102250000021C1750176E421417600218176C176A5
:10226000C748FEF7A7FFC248007840F00400C04905
:1022700008700020C3490870BE48007800F00200D2
:1022800000282DD1BA48007800F0080040BBBA48B9
:10229000007828B30120B9490860486000208860B0
:1022A000C86008200861002008752A21B3484175DC
:1022B000E42181750021C1750176E4214176002178
:1022C0008176C176AE48FEF775FFA948007840F0E8
:1022D0000800A749087000E03CE10020AA49087006
:1022E000A348007800F0010000286FD00220A34925
:1022F0000860486000208860C860082008610020ED
:1023000008751A219D48417500218175C175944851
:102310000078012803D101219848017602E00021CC
:10232000964801760621954841768F48B0F900001D
:10233000FEF739F841EC1B0B9FED940B53EC102B7F
:10234000FDF750FF41EC1A0B9FED920B53EC102B55
:10235000FDF7BAFF41EC190B9FED900B53EC102BDE
:10236000FDF740FF41EC180BFEF72EF8010A8348F9
:1023700081767D48B0F90000FEF715F841EC1B0BA3
:102380009FED820B53EC102BFDF72CFF41EC1A0B49
:102390009FED800B53EC102BFDF796FF41EC190BD2
:1023A0009FED7E0B53EC102BFDF71CFF41EC180B3F
:1023B000FEF70AF8C1B27148C1767148FEF7FAFE1D
:1023C0006B48007820F0010069490870684800787F
:1023D00000F0020000285FD00120684908604860D2
:1023E00000208860C86008200861002008751A2154
:1023F0006248417500218175C175594800780128EE
:1024000003D101215D48017602E000215B4801769D
:1024100006215A4841765548B0F90000FDF7C3FF40
:1024200041EC1A0B9FED5B0B53EC102BFDF74CFFAF
:1024300041EC190B9FED590B53EC102BFDF7D2FE1D
:1024400041EC180BFDF7C0FF010A4C488176474864
:10245000B0F90000FDF7A7FF41EC1A0B9FED4D0B03
:1024600053EC102BFDF730FF41EC190B9FED4B0B9C
:1024700053EC102BFDF7B6FE41EC180BFDF7A4FF53
:10248000C1B23E48C1763E48FEF794FE3848007817
:1024900020F00200364908704248007801280BD12C
:1024A00002214148FFF7ACF80C224049404800F0B7
:1024B00043FA00203B4908702D48007800F00400E2
:1024C00088B130480078401C2E49087008460078D2
:1024D000642808DB2648007820F0040024490870AE
:1024E0000020284908702248007800F0080088B1D0
:1024F00025480078401C2449087008460078642864
:1025000008DB1B48007820F00800194908700020FB
:102510001D49087027480078012803D02548007815
:10252000022817D124480088401C23490880084607
:10253000008814280EDB002003E000211F4A1154FC
:10254000401C1028F9DB00201D490870194908704B
:1025500019490880BDEC088B10BD00006C000020FC
:102560000D0000200E0000201000002012000020AE
:102570000B0000200C0000200200002008010020B9
:102580002C000020030000200400002000000000B8
:102590000000F0BF000000000070A7400000000035
:1025A0000000C0400A00002000040240F8000020A3
:1025B000A80000200700002000000020E800002004
:1025C0000600002070477047F8B504460025002635
:1025D0002068006800F001052068C06800F480767B
:1025E0007DB176B100BF00200090206800680090A7
:1025F00020684068009000BF00BFE06B40F0010021
:10260000E06320680068C0F340052068406900F07E
:1026100001067DB176B100BF0020009020680068FF
:10262000009020684068009000BF00BFE06B40F061
:102630000400E06320680068C0F3800520684069FA
:1026400000F001067DB176B100BF00200090206847
:102650000068009020684068009000BF00BFE06BF9
:1026600040F00200E06320680068C0F3C005206805
:10267000406900F001067DB176B100BF00200090F6
:1026800020680068009020684068009000BF00BF8C
:10269000E06B40F00800E06320680068C0F340157C
:1026A0002068C06800F020061DB116B1204600F079
:1026B00081FB20680068C0F3C0152068C06800F086
:1026C00080061DB116B1204600F07CFD2068006830
:1026D000C0F380152068C06800F040061DB116B137
:1026E000204600F057FBE06B38B1202084F8390019
:1026F00084F83A002046FFF766FFF8BD10B504469F
:102700000CB9012010BDA06900B100E000BF94F831
:10271000390028B9002084F83800204600F028F855
:10272000242084F839002068C06820F40050216813
:10273000C860204600F092FB2068006920F49040B9
:10274000216808612068406920F02A0021684861FA
:102750002068C06840F400502168C8600020E06331
:10276000202084F8390084F83A000020CAE70000ED
:1027700010B586B004461249206888421ED100BFB9
:10278000002000900F48006840F010000D490860DC
:102790000846006800F01000009000BF00BF4FF432
:1027A000C060019002200290012003900320049059
:1027B0000720059001A90448FEF714FE06B010BDDD
:1027C00000100140443802400000024010B50346AA
:1027D00093F83A0020282FD101B10AB9012010BD89
:1027E00000BF93F83800012801D10220F7E701204B
:1027F00083F8380000BF99629A85DA850020D86393
:10280000222083F83A001868C06840F480701C6881
:10281000E0601868406940F001001C68606100BF1A
:10282000002083F8380000BF1868C06840F020001E
:102830001C68E0600020D2E70220D0E710B5044613
:10284000384884426DD138480078B0B937480078AC
:1028500055280ED1354801783548364A12788154CA
:1028600034480078401C3349087001202E49087014
:1028700041E065202C4908703DE02B480078012894
:1028800016D12A480078AA280ED12848017828486D
:10289000284A1278815427480078401C254908703E
:1028A00002202149087026E065201F49087022E0B7
:1028B0001D48007802281ED11E4800780B280FDB27
:1028C0001A4800780A2807D11A4800780B2803D143
:1028D0000320154908700EE06520134908700AE0CE
:1028E000124801781248134A12788154114800782E
:1028F000401C104908700C48007865280CD1002055
:1029000003E000210A4A1154401C1028F9DB002082
:102910000849087004490870012204490148FFF77A
:1029200055FF10BDA8000020070000200500002072
:10293000E80000200600002010B5034693F8390097
:10294000202823D101B10AB9012010BD00BF93F89E
:102950003800012801D10220F7E7012083F8380070
:1029600000BF19629A84DA840020D863212083F89A
:10297000390000BF002083F8380000BF1868C06825
:1029800040F080001C68E0600020DEE70220DCE709
:10299000704700BFFEE7000010B50D480D49086004
:1029A0000620486000210B488160C1604FF4E0219F
:1029B00001614FF4A0014161002181610121C161E8
:1029C0000162002141628162C162FEF77BF810BDA5
:1029D000006400402C00002000B587B000BF00203C
:1029E00001901E48006840F080001C4908600846BD
:1029F000006800F08000019000BF00BF00BF002011
:102A000001900846006840F002000860084600682F
:102A100000F00200019000BF00BF00BF0020019045
:102A20000846006840F0010008600846006800F0B1
:102A30000100019000BF00BF012203210848FEF7FA
:102A4000E3FD0320029001200390002004900590F4
:102A500002A90348FEF7C6FC07B000BD30380240AB
:102A60000004024010B5012200211320FEF73EFEB3
:102A70001320FEF72EFE022200211420FEF736FE60
:102A80001420FEF726FE032200211520FEF72EFE5D
:102A90001520FEF71EFE042200211620FEF726FE5A
:102AA0001620FEF716FE002201212520FEF71EFE4D
:102AB0002520FEF70EFE032201213720FEF716FE29
:102AC0003720FEF706FE10BD1CB50B480B49086009
:102AD00042F2283048600021084881606421C160CA
:102AE000FFF762FA20200090002001906946034819
:102AF000FFF729FA1CBD0000001400406C00002004
:102B000010B50948094908604FF4E13048600021D8
:102B100006488160C16001610C2141610021816131
:102B2000C161FFF7EBFD10BD00100140A8000020BF
:102B300000BFFEE710B5FEF7F3FF10BD02480068C6
:102B4000C0F30220704700000CED00E010B5002833
:102B500007DA0A07140E054A00F00F031B1FD454AE
:102B600003E00A07130E024A135410BD18ED00E0EB
:102B700000E400E010B5FEF753FDFFF7DEF910BDED
:102B800010B592B000BF002000902A48006840F0C5
:102B90008050284908600846006800F08050009086
:102BA00000BF00BF00BF002000902348006840F431
:102BB0004040214908600846006800F44040009009
:102BC00000BF00BF01200690079002200C90410535
:102BD0000D9119210E914FF4B4710F9102211091B2
:102BE0000421119106A8FEF7ABFFFEF7D1FD0F20DF
:102BF000019002200290002003904FF4A050049016
:102C00004FF480500590052101A8FEF715FEFEF750
:102C1000E5FE4FF47A71B0FBF1F42046FFF773F94B
:102C20000420FFF75BF900221146501EFEF75EFDFF
:102C300012B010BD403802400070004014480068D7
:102C400040F47000124908601248006840F001002A
:102C50001049086000200F49083108600D480068DD
:102C60000D4908400B4908600C48091D0860081F01
:102C7000006820F48020091F0860002005490C31FD
:102C800008604FF00060024980390860704700001A
:102C900088ED00E000380240FFFFF6FE103000240F
:102CA00010B50248FFF7C4F910BD00006C00002009
:102CB000002202682C4B98420ED0B0F1804F0BD00E
:102CC0002A4B984208D02A4B984205D0294B98426B
:102CD00002D0294B984201D1012300E000231BB10F
:102CE00022F070024B681A431F4B984220D0B0F17B
:102CF000804F1DD01D4B98421AD01D4B984217D0C3
:102D00001C4B984214D01C4B984211D01B4B98423C
:102D10000ED01B4B98420BD01A4B984208D01A4B3E
:102D2000984205D0194B984202D0194B984201D1D4
:102D3000012300E000231BB122F44072CB681A4348
:102D400002608B68C3620B688362074B984202D0B3
:102D5000094B984201D1012300E000230BB10B691C
:102D600003630123436170470000014000040040F9
:102D700000080040000C00400004014000400140F9
:102D8000004401400048014000180040001C004081
:102D90000020004010B504462068C06820F04000C4
:102DA0002168C860202084F839002046FFF7F0FD34
:102DB000002010BD70B5044694F83A0022284AD18C
:102DC000A068B0F5805F13D1A56A206940B920687A
:102DD0004068C0F308002880A06A801CA06219E047
:102DE00020684068C0B22880A06A401CA06211E040
:102DF000206938B920684068C1B2A26A501CA0623C
:102E0000117007E02068406800F07F01A26A501C42
:102E1000A0621170E08D401E80B2E085C8B92068C4
:102E2000C06820F020002168C8602068C06820F4D5
:102E300080702168C8602068406920F00100216826
:102E40004861202084F83A002046FFF7F7FC002074
:102E500070BD0020FCE70220FAE700002DE9F041F8
:102E6000044600252068056925F44055E0680543BF
:102E7000206805612068C56849F20C6085432169B6
:102E8000A068084361690843E16908430543206875
:102E9000C5602068456925F44075A0690543206830
:102EA0004561E069B0F5004F7ED1C4492068884291
:102EB00003D0C349206888425DD1FEF7C1FD00EB15
:102EC000C00101EB001061684900B0FBF1F0642122
:102ED000B0FBF1F00601FEF7B3FD00EBC00101EB22
:102EE000001061684900B0FBF1F7FEF7A9FD00EBA7
:102EF000C00101EB001061684900B0FBF1F06421F2
:102F0000B0FBF1F000EBC00101EB0010A7EB80007B
:102F1000322101EBC0006421B0FBF1F000F0F800B9
:102F200006EB4006FEF78CFD00EBC00101EB001044
:102F300061684900B0FBF1F7FEF782FD00EBC001CC
:102F400001EB001061684900B0FBF1F06421B0FBB7
:102F5000F1F000EBC00101EB0010A7EB8000322183
:102F600001EBC0006421B0FBF1F000F00700304439
:102F70002168886020E1FEF74DFD00EBC00101EB08
:102F8000001061684900B0FBF1F06421B0FBF1F082
:102F90000601FEF73FFD00EBC00101EB0010616888
:102FA0004900B0FBF1F700E045E0FEF733FD00EB30
:102FB000C00101EB001061684900B0FBF1F0642131
:102FC000B0FBF1F000EBC00101EB0010A7EB8000BB
:102FD000322101EBC0006421B0FBF1F000F0F800F9
:102FE00006EB4006FEF716FD00EBC00101EB0010FA
:102FF00061684900B0FBF1F7FEF70CFD00EBC00182
:1030000001EB001061684900B0FBF1F06421B0FBF6
:10301000F1F000EBC00101EB0010A7EB80003221C2
:1030200001EBC0006421B0FBF1F000F00700304478
:1030300021688860C0E061492068884203D0604907
:10304000206888425CD1FEF7FBFC00EBC00101EB7D
:10305000001061688900B0FBF1F6FEF7F1FC00EBAF
:10306000C00101EB001061688900B0FBF1F0642140
:10307000B0FBF1F000EBC00101EB0010A6EB80000B
:10308000322101EB00106421B0FBF1F000F0F006FA
:10309000FEF7D6FC00EBC00101EB0010616889006F
:1030A000B0FBF1F06421B0FBF1F006EB0016FEF787
:1030B000C7FC00EBC00101EB001061688900B0FBA8
:1030C000F1F7FEF7BDFC00EBC00101EB00106168F9
:1030D0008900B0FBF1F06421B0FBF1F000EBC0011E
:1030E00001EB0010A7EB8000322101EB00106421FE
:1030F000B0FBF1F000F00F003044216888605BE025
:10310000FEF788FC00EBC00101EB0010616889004C
:10311000B0FBF1F6FEF77EFC00EBC00101EB001006
:1031200061688900B0FBF1F06421B0FBF1F000EBC5
:10313000C00101EB0010A6EB8000322101EB001072
:103140006421B0FBF1F000F0F006FEF763FC00EB49
:10315000C00101EB001061688900B0FBF1F064214F
:10316000B0FBF1F006EB0016FEF754FC00EBC001DB
:1031700001EB001061688900B0FBF1F7FEF74AFC33
:1031800000EBC00101EB001061688900B0FBF1F0B9
:103190006421B0FBF1F000EBC00101EB0010A7EBE4
:1031A0008000322101EB00106421B0FBF1F000F04F
:1031B0000F00304421688860BDE8F08100100140B4
:1031C00000140140014691F8390021282CD188686B
:1031D000B0F5805F0FD10A6A1088C0F308000B6851
:1031E0005860086918B9086A801C086209E0086A12
:1031F000401C086205E00B6A581C086218780B68CE
:103200005860C88C401E80B2C88458B90868C0682D
:1032100020F080000B68D8600868C06840F040006B
:103220000B68D860002070470220FCE710B5024808
:10323000FFF7CAF910BD0000A800002000BFFEE79C
:1032400002E008C8121F08C1002AFAD1704770476F
:10325000002001E001C1121F002AFBD170470000CD
:10326000FEF7E6F9FFF78CFCFFF7B6FBFFF788FCEB
:10327000FFF792FBFFF744FCFFF726FCFFF7F2FB9A
:1032800092489349486393480863FDF74DF900213C
:103290008F48FDF725FD01218D48FDF721FD012215
:1032A0008D498E48FFF792FA8D48FEF7B1FE8D48A2
:1032B000007800283ED1022086490860486000203E
:1032C0008860C86008200861002008751A218148BC
:1032D0004175022181750021C175C42101760A2141
:1032E00041768176C17601217948FDF733FE0120D0
:1032F00078490860486000208860C860082008613C
:10330000002008751A21734841750221817500213A
:10331000C175C42101760A2141768176C1760121E9
:103320006B48FDF717FE4FF4FA70FEF74DF80120D9
:103330006C490870C8E06C480078032856D16B4887
:10334000007800F00300002850D10120684908707F
:103350000020684908806848807868490870664895
:10336000C078487064480079887063484079C870B4
:10337000084690ED000ABDEEC00A10EE100A00B239
:103380005F4908805948007840F0010057490870AB
:1033900059488079594908705748C079487056484B
:1033A000007A88705448407AC870084690ED000A48
:1033B000BDEEC00A10EE100A00B2524908804B4818
:1033C000007840F00200494908704B48807A4E4925
:1033D0000870002003E00021474A1154401C1028C7
:1033E000F9DB0020494908703F49087046480078D9
:1033F00030B1012808D002280AD0032810D10BE0F0
:103400000020434908700FE00120414908700BE09B
:1034100002203F49087007E003203D49087003E09F
:10342000FF203B49087000BF00BF3A4800780328DE
:103430004AD139480078002846D1552037490870CC
:10344000AA2048703648B0F9000000EE100AB8EE25
:10345000C00A344880ED000A2E48007820F00100B0
:103460002C4908702F4800782C4988702D484078E6
:10347000C8702C48807808712A48C07848712A485A
:10348000B0F9000000EE100AB8EEC00A254880ED41
:10349000000A2048007820F002001E4908702148E8
:1034A00000781E4988711F484078C8711D4880788F
:1034B00008721C48C07848721548007888720A2043
:1034C000C87201201449087035E70000240100206B
:1034D0002C0000200801002005000020A80000208A
:1034E0006C00002002000020070000200B000020DC
:1034F0000D0000200E000020E80000201C0000202D
:1035000010000020120000201800002006000020FB
:10351000190000200C0000200A000020F800002004
:1035200014000020200000201600002000000000F1
:103530000102030401020304060708095C350008C0
:10354000000000202C0000004032000888350008F0
:103550002C0000201C050000503200080000000074
:10356000000000000000000000000000000000005B
:10357000000000000000000000000000000000004B
:08358000000000000024F4002B
:04000005080001AD41
:00000001FF
