:020000040800F2
:1000000088050020C5010008E92500080324000830
:10001000E525000819050008F12C00080000000083
:10002000000000000000000000000000D7010008F0
:10003000B907000800000000DB01000829260008BD
:10004000DF010008DF010008DF010008DF01000810
:10005000DF010008DF010008DF010008DF01000800
:10006000DF010008DF010008DF010008DF010008F0
:10007000DF010008DF010008DF010008DF010008E0
:10008000DF010008DF010008DF0100088D0500081E
:100090004D050008650500087D050008DF01000822
:1000A000DF010008DF010008DF010008DF010008B0
:1000B000DF010008DF010008DF010008DF010008A0
:1000C000DF010008DF010008DF010008DF01000890
:1000D000DF010008E12C0008DF010008DF01000853
:1000E000DF010008DF010008DF010008DF01000870
:1000F000DF010008DF010008DF010008DF01000860
:10010000DF010008DF010008DF010008DF0100084F
:10011000DF010008DF010008DF01000855270008A3
:10012000DF010008DF010008DF010008DF0100082F
:10013000DF010008DF010008DF010008DF0100081F
:10014000DF010008DF010008DF010008DF0100080F
:10015000DF010008DF010008DF010008DF010008FF
:10016000DF010008DF010008DF010008DF010008EF
:10017000DF010008DF010008DF01000800000000C7
:10018000DF010008DF010008DF010008DF010008CF
:10019000DF010008DF010008DF010008DF010008BF
:1001A000DF010008DF010008DF010008DFF810D0E0
:1001B00000F0A0F900480047152D0008AFF30080BB
:1001C000880500200648804706480047FEE7FEE70E
:1001D000FEE7FEE7FEE7FEE7FEE7FEE7FEE7FEE7F7
:1001E000F1260008AD0100082DE9F0410024061BAE
:1001F000254671F1000605DA01240027D0EB07003F
:1002000067EB0101161E73F1000605DA0027D2EB39
:100210000702012567EB030300F0BFF886460E4690
:1002200017469C46AC4204D00025D0EB050E65EB8A
:10023000010624B10020D2EB000760EB030C7046EE
:1002400031463A466346BDE8F0812DE9FE4F81EA2A
:10025000030404F0004421F0004100944FF0000B2F
:1002600023F0004350EA01045ED052EA03045BD05D
:10027000C3F30A54C1F30A552C44A4F2F334019495
:10028000A0FB0254C1F3130141F48011C3F3130323
:1002900043F4801301FB024400FB034E840A970AD7
:1002A00044EA815447EA8357A4FB076802958D0A04
:1002B00005FB07854FEA932C04FB0C542705029D90
:1002C0004FEA065847EA1637B5EB08056EEB070C00
:1002D000870E920E47EA811742EA8312A7FB0201BA
:1002E000B6EB0B0164EB00042B0D43EA0C335E18F4
:1002F00044EB1C50DA465146E7FB0201C5F31304F8
:100300004FEA0B3343EA14534FEA0432019C43EAA9
:100310000603A4F10C040294009CCDE900B400F0A3
:100320009BF803B0BDE8F08F00200146F9E70EB559
:10033000C10F80EAE0700844CA07002140F233434D
:100340008DE80E000A460B4600F086F803B000BDAB
:1003500070B5C1F30A5201F000450024C1F3130146
:1003600040F2FF3341F480119A4202DA0020014644
:1003700070BD40F233439A42A2F2334203DC524250
:1003800000F04BF801E000F039F82C43F0D00023E6
:10039000D0EB030063EB010170BD2DE9F05F054672
:1003A000002092469B4688460646814640241BE034
:1003B000284641464746224600F02FF853465A4603
:1003C000C01A914110D311461846224600F016F883
:1003D0002D1A67EB01084F4622460120002100F04C
:1003E0000DF817EB00094E41201EA4F10104DFDCDB
:1003F000484631462A464346BDE8F09F202A04DBA2
:10040000203A00FA02F1002070479140C2F1200327
:1004100020FA03F3194390407047202A04DB203A66
:1004200021FA02F00021704721FA02F3D040C2F114
:100430002002914008431946704710B5141E73F10D
:10044000000408DA401C41F1000192185B411A4394
:1004500001D120F0010010BD2DE9F04D92469B46E0
:1004600011B1B1FA81F202E0B0FA80F22032904686
:10047000FFF7C4FF04460F4640EA0A0041EA0B01B9
:1004800053465A46084313D0114653EA010019D087
:10049000C8F140025046FFF7C0FF05460E465046E1
:1004A00059464246FFF7AAFF084305D0012004E061
:1004B00020463946BDE8F08D0020054346EAE07647
:1004C0002C4337430A986305E40AA0EB0800002296
:1004D000FD0A44EA47540A3002D500200146E9E704
:1004E000010510196941DDE9084500196941BDE8B8
:1004F000F04DA2E7064C074D06E0E06840F001032E
:1005000094E8070098471034AC42F6D3FFF752FE48
:1005100090330008B033000800BFFEE700B58BB091
:10052000002001900290039004900590069007909F
:100530000120089009900E200A9001A9024800F0BD
:100540003DF90BB000BD00006800002010B5044864
:1005500000F0CCF90021024800F0BCFB10BD000007
:100560006800002010B5044800F0C0F901210248DD
:1005700000F0B0FB10BD00006800002010B502487C
:1005800000F0B4F910BD00006800002010B502486A
:1005900000F0ACF910BD00006800002070B5044602
:1005A0000D46206800F5D87000EB0510006800F0DB
:1005B0000400616B8860606B806860B9206800F53A
:1005C000D87000EB0510006840F2FF7101EA50504E
:1005D000616B08600BE0206800F5D87000EB051037
:1005E00000686FF0604101EAD000616B48602068EC
:1005F00000F5D87000EB0510006800F00200616B98
:10060000C860206800F5D87000EB0510406800F065
:100610000F00616B0861206800F5D87000EB0510D1
:100620004068C0F30720616BC861206800F5D8708E
:1006300000EB05108068616B0875206800F5D870C4
:1006400000EB05108068010A606B4175206800F5B9
:10065000D87000EB05108068010C606B8175206814
:1006600000F5D87000EB05108068000E616BC8754E
:10067000206800F5D87000EB0510C068C1B2606B4F
:100680000176206800F5D87000EB0510C068010AFB
:10069000606B4176206800F5D87000EB0510C068EB
:1006A000010C606B8176206800F5D87000EB0510B6
:1006B000C068000E616BC8764DB920202168C86003
:1006C0002068406920F002002168486108E020208D
:1006D000216808612068406920F0100021684861A5
:1006E00094F8380022281DD12068406920F48070D9
:1006F000216848612068406920F4007021684861E1
:100700002068406920F48060216848612068406961
:1007100020F40060216848612068406920F40040AE
:100720002168486194F83800322803D1122084F8F7
:10073000380002E0012084F83800204600F022FB57
:10074000002070BD10B504462068406920F001000B
:100750002168486194F8380012281DD1206840694A
:1007600020F48070216848612068406920F400709E
:10077000216848612068406920F4806021684861F0
:100780002068406920F40060216848612068406961
:1007900020F400402168486194F83800322803D1E1
:1007A000222084F8380002E0012084F83800204636
:1007B00000F031FC002010BD00BFFEE730B503465D
:1007C00000220C7D012000FA04F24648006840F047
:1007D0000100444C20602046006820F47C502060DA
:1007E000204600684C6A40EA04203E4C20603D48A8
:1007F0001C30006890433B4C1C342060C869D8B959
:1008000038480C3000689043364C0C34206088889F
:1008100080B28C8940EA0444324840304D6940F847
:100820003540088880B20C8940EA04442D484030A5
:100830004D6900EBC5004460C86901281BD12948F7
:100840000C3000681043274C0C342060888880B23C
:100850000C8840EA0444234840304D6940F8354054
:10086000888980B20C8940EA04441E4840304D69B2
:1008700000EBC5004460886938B91A48001D00685B
:100880009043184C241D206006E01648001D0068A7
:100890001043144C241D2060086930B911481430ED
:1008A000006890430F4C143420600869012806D179
:1008B0000C481430006810430A4C14342060086A55
:1008C000012806D107481C3000681043054C1C3431
:1008D00020600448006820F00100024C20600020E5
:1008E00030BD000000660040704700002DE9F04177
:1008F00004460025002600272068406900F001001A
:1009000018B32068806869490840884201D10120F5
:1009100000E000200546206880686549084088425C
:1009200001D1012000E0002006462068806861496E
:100930000840884201D1012000E0002007460DB99F
:1009400006B917B12046FFF7FDFE2068C06800F029
:10095000030520684069C0F3400625B11EB100219F
:100960002046FFF71BFE2068006900F003052068A1
:100970004069C0F3001625B11EB101212046FFF7E2
:100980000DFE2068806900F0010520684069C0F311
:10099000002620684069C0F3C0372DB126B11FB1D1
:1009A000E06B40F00100E06320688069C0F340051F
:1009B00020684069C0F3402620684069C0F3C03712
:1009C0002DB126B11FB1E06B40F00200E06320685A
:1009D0008069C0F3800520684069C0F380262068E4
:1009E0004069C0F3C0372DB126B11FB1E06B40F0B4
:1009F0000400E0632068806900F0700008B90120FD
:100A000000E00020054620684069C0F3C026206849
:100A10004069C0F3C03795BB8EB387B32068806947
:100A200000F07005402D1BD006DC102D09D0202DC4
:100A30000CD0302D24D10EE0502D16D0602D1FD1BA
:100A400018E0E06B40F00800E0631AE0E06B40F073
:100A50001000E06315E0E06B40F02000E06310E080
:100A6000E06B40F04000E0630BE0E06B40F08000A2
:100A7000E06306E0E06B40F48070E06301E007E0D3
:100A800000BF00BF2068806920F070002168886185
:100A9000E06B40B1042021684860012084F83800F0
:100AA0002046FFF721FFBDE8F081000003000004AD
:100AB000000300080000031070B50446032600255B
:100AC0000CB9012070BD94F8380028B9002084F8D2
:100AD0003900204600F0D0F8022084F83800206861
:100AE000006820F00200216808602068006840F07B
:100AF00001002168086000F0B5FB05460EE000F03B
:100B0000B1FB401B0A2809D9032084F8380000BF34
:100B1000002084F8390000BF0320D3E72068406834
:100B200000F001000028EAD02068406800F00100D1
:100B300008B9002692E0A069012806D12068006863
:100B400040F080002168086005E02068006820F01F
:100B5000800021680860E069012806D120680068EB
:100B600040F040002168086005E02068006820F03F
:100B7000400021680860206A012806D120680068CA
:100B800040F020002168086005E02068006820F03F
:100B9000200021680860606A012806D1206800688A
:100BA00040F010002168086005E02068006820F02F
:100BB000100021680860A06A012806D1206800683A
:100BC00040F008002168086005E02068006820F017
:100BD000080021680860E06A012806D120680068E2
:100BE00040F004002168086005E02068006820F0FB
:100BF000040021680860D4E9020108432169084320
:100C0000616908436168491E08432168C86120681A
:100C1000006820F001002168086000F023FB054611
:100C20000EE000F01FFB401B0A2809D9032084F8BE
:100C3000380000BF002084F8390000BF032041E7DE
:100C40002068406800F001000028EAD12068406870
:100C500000F0010008B1002600E00126012E06D1B7
:100C60000020E063012084F8380000202AE70420F7
:100C700084F83800012025E710B586B004461249F3
:100C8000206888421ED100BF002000900F480068F5
:100C900040F000700D4908600846006800F00070E0
:100CA000009000BF00BF4FF4C0500190022002909E
:100CB00000200390032004900920059001A9044816
:100CC00000F0B8F906B010BD0064004040380240A2
:100CD0000000024010B50246002392F83830012B84
:100CE00001D0122B49D100BF92F83900012801D15F
:100CF000022010BD012082F8390000BF92F83800B0
:100D0000122803D1322082F8380002E0222082F833
:100D100038000020D0631068406940F48070146887
:100D200060611068406940F4007014686061106888
:100D3000406940F48060146860611068406940F464
:100D40000060146860611068406940F400401468F5
:100D5000606100BF002082F8390000BF31B910681F
:100D6000406940F002001468606108E01068406962
:100D700040F010001468606101E00220B9E7002033
:100D8000B7E7000010B50446194884422FD101216D
:100D9000184800F05DFA1848006840F28551884212
:100DA00025D11548007D432821D11348407D0C28CA
:100DB0001DD11148807D602819D10F48C07DB0B980
:100DC0000D48C07E01060C48807E41EA00410A4879
:100DD000407E41EA00200849097E0843074908602F
:100DE00007480078012802D102200549087010BD8B
:100DF0006800002000040240600100202000002064
:100E00002400002010B5014605220868806800F023
:100E10008060B0F1806F0DD00868806800F00060DD
:100E2000B0F1006F06D00868806800F08050B0F123
:100E3000805F7DD100BF91F83900012801D10220E7
:100E400010BD012081F8390000BF0868806800F0FB
:100E50008060B0F1806F01D1002209E008688068ED
:100E600000F00060B0F1006F01D1012200E0022229
:100E7000086800F5C07000EB0210006800F0010384
:100E8000086800F5C07000EB02100360086B806812
:100E900098B9086800F5C07000EB021000680B6B91
:100EA000DB680C6B248843EA445318430B6803F552
:100EB000C07303EB0213186015E0086800F5C070FA
:100EC00000EB021000680B6B9B680C6B646843EAD4
:100ED000C4030C6BE468234318430B6803F5C07329
:100EE00003EB02131860086B007C00F00F000B6B23
:100EF0001861086800F5C07000EB0210406820F02F
:100F00000F03086800F5C07000EB0210436008682A
:100F100000F5C07000EB02104368086B00690343E2
:100F2000086800F5C07000EB02104360086B00E039
:100F30006AE0C07D0306086B807D43EA0043086BCE
:100F4000407D43EA00200B6B1B7D18430B6803F5C3
:100F5000C07303EB02139860086BC07E0306086B36
:100F6000807E43EA0043086B407E43EA0023086B1F
:100F7000007E0343086800F5C07000EB0210C360F8
:100F800091F83800222803D1322081F8380002E09D
:100F9000122081F838000020C86300BF81F83900B2
:100FA00000BF0868406940F480700B6858610868A9
:100FB000406940F400700B6858610868406940F46B
:100FC00080600B6858610868406940F400600B68F5
:100FD00058610868406940F400400B68586108682F
:100FE000406940F001000B685861086800F5C07066
:100FF00000EB0210006840F00103086800F5C070C3
:1010000000EB0210036004E0042081F838000120A6
:1010100016E7002014E7704731B5002400F022F9EC
:10102000044600BF00F01EF9001B00998842F9D366
:1010300038BD0000F8B502460B460025002400200C
:101040000021E6E0012606FA01F51E6806EA05041D
:10105000AC4273D15E68022E02D05E68122E13D1AC
:10106000CF0802F1200656F827004E07F70E0F268C
:10107000BE40B0434F07FF0E1E69BE403043CF084D
:1010800002F1200646F8270010684F000326BE40F4
:10109000B0431E7906F003064F00BE403043106097
:1010A0005E68012E08D05E68022E05D05E68112EA3
:1010B00002D05E68122E13D190684F000326BE4006
:1010C000B0434F00DE68BE40304390605068012658
:1010D0008E40B0431E79C6F300168E4030435060F8
:1010E000D0684F000326BE40B0434F009E68BE400C
:1010F0003043D0605E6806F08056B6F1805FA8D1BC
:1011000000BF00260096454E366846F48046434FA1
:101110003E603E46366806F48046009600BF00BF3B
:101120003F4E8F0856F827008E07370F0F26BE4018
:10113000B0433C4EB24202D100262EE068E03A4E67
:10114000B24201D1012628E0384EB24201D1022636
:1011500023E0374EB24201D103261EE0354EB242A3
:1011600001D1042619E0344EB24201D1052614E023
:10117000324EB24201D106260FE0314EB24201D1C9
:1011800007260AE02F4EB24201D1082605E02E4E76
:10119000B24201D1092600E00A268F073F0FBE4068
:1011A00030431F4E8F0846F82700284E3068A04372
:1011B0005E6806F48036B6F5803F00D12043234EAA
:1011C0003060361D3068A0435E6806F40036B6F520
:1011D000003F00D120431D4E361D3060361D306863
:1011E000A0435E6806F48016B6F5801F00D1204348
:1011F000164E08363060361D3068A0435E6806F42F
:101200000016B6F5001F00D12043104E0C3630609A
:10121000491C1029FFF416AFF8BD00004438024005
:10122000083801400000024000040240000802406B
:10123000000C02400010024000140240001802405E
:10124000001C02400020024000240240003C0140FB
:1012500042694A40426170470AB1816101E00B0472
:1012600083617047014800687047000060000020FB
:1012700002480068401C0149086070476000002077
:1012800010B50D48006840F400700B49086008462E
:10129000006840F4806008600846006840F4807090
:1012A0000860032000F088F8002000F007F800F044
:1012B00017F8002010BD0000003C024070B5044645
:1012C00000F0B4F94FF47A71B0FBF1F5284600F064
:1012D00042FC00222146501E00F030F8002070BD74
:1012E00010B5062000F068F8002211466FF00B00E0
:1012F00000F024F8002211466FF00A0000F01EF8FA
:10130000002211466FF0090000F018F80022114683
:10131000101F00F013F800221146501E00F00EF8C6
:1013200010BD00BF00F01F02012191404209920050
:1013300002F1E022C2F8001100BF70472DE9F05F12
:1013400080460D461646002701F052F907463946F9
:101350002A46334601F00700C0F1070ABAF1040F2C
:1013600002D94FF0040A01E0C0F1070AD14600F1AA
:10137000040ABAF1070F02D24FF0000A01E0A0F10F
:10138000030AD4464FF0010A0AFA09FAAAF1010A3F
:101390000AEA020A0AFA0CFA4FF0010B0BFA0CFBEC
:1013A000ABF1010B0BEA030B4AEA0B042146404662
:1013B00001F026F9BDE8F09F00BF00F00702064BE0
:1013C00019684FF6FF031940044B0B4343EA02210F
:1013D000014B196000BF70470CED00E00000FA05FA
:1013E00038B5002400BF002000902348006840F07A
:1013F0008050214908600846006800F08050009045
:1014000000BF00BF0120010491FAA1F1B1FA81F1FE
:101410001A4A42F82100FFF725FF044607E0FFF7CC
:1014200021FF001BB0F57A7F01D9032038BD144895
:10143000406800F48030B0F5803FF0D101204104D5
:1014400091FAA1F1B1FA81F10C4A42F82100FFF7BB
:1014500009FF044607E0FFF705FF001BB0F57A7FA0
:1014600001D90320E2E70648406800F40030B0F5F7
:10147000003FF0D10020D9E74038024000000E4282
:10148000007000407047000070B504460D4600260D
:101490006448006800F00F00A84209D261490D704D
:1014A0000846006800F00F00A84201D0012070BD7E
:1014B000207800F00200022807D15B48006820F085
:1014C000F000A168084358490860207800F0010046
:1014D000002877D06068012807D153480838006891
:1014E000C0F34040B8B90120E1E76068022802D0AB
:1014F0006068032807D14C4808380068C0F3406092
:1015000048B90120D3E7484808380068C0F34000D4
:1015100008B90120CBE74448006820F00300616867
:10152000084341490860FFF79DFE064660680128B0
:1015300010D108E0FFF796FE801B41F28831884207
:1015400001D90320B3E73848006800F00C000428F4
:10155000F0D137E06068022810D108E0FFF782FE82
:10156000801B41F28831884201D903209FE72E4831
:10157000006800F00C000828F0D123E06068032820
:1015800010D108E0FFF76EFE801B41F288318842DF
:1015900001D903208BE72448006800F00C000328E1
:1015A000F0D10FE008E0FFF75DFE801B41F28831CB
:1015B000884201D903207AE71B48006800F00C003C
:1015C0000028F0D11748006800F00F00A84209D9A0
:1015D00014490D700846006800F00F00A84201D0C1
:1015E000012064E7207800F00400042807D10E48A9
:1015F000006820F4E050E16808430B490860207857
:1016000000F00800082808D10748006820F460406E
:10161000216940EAC100044908600020FFF74EFE3E
:10162000002044E7003C02400838024010B500F0BA
:1016300045F80949096801F0F001F02292FAA2F296
:10164000B2FA82F2D140054A515CC84004490860B0
:101650000846006810BD00000838024080330008CA
:101660006400002010B5FFF7E1FF0749096801F4A5
:10167000E0514FF4E05292FAA2F2B2FA82F2D14073
:10168000024A515CC84010BD08380240803300084F
:1016900010B5FFF7CBFF0749096801F460414FF42B
:1016A000604292FAA2F2B2FA82F2D140024A515C4E
:1016B000C84010BD083802408033000870B50021D2
:1016C000002200230020274C246804F00C0424B1DD
:1016D000042C04D0082C41D103E0234840E02348E7
:1016E0003EE0204C241F246804F03F011D4C241FC1
:1016F000246804F4800484B11C4CB4FBF1F5194C4B
:10170000241F246847F6C076344096FAA6F6B6FA47
:1017100086F6F44005FB04F20FE0134CB4FBF1F540
:10172000104C241F246847F6C076344096FAA6F67B
:10173000B6FA86F6F44005FB04F20A4C241F24682E
:1017400004F440344FF4403595FAA5F5B5FA85F523
:10175000EC40641C6300B2FBF3F001E0024800BF00
:1017600000BF70BD083802400024F40040787D01BD
:1017700010B50648006800F08000802805D1FFF70A
:1017800081FE80200149891C087010BD0C38024080
:1017900038B504460025207800F00100002848D024
:1017A000DE48006800F00C0004280DD0DB4800681B
:1017B00000F00C00082811D1D848001F006800F480
:1017C0008000B0F5800F09D1D44808380068C0F314
:1017D000404070B3606860BB012038BD2079CF49BC
:1017E000891F0870606890B1FFF73CFD054606E070
:1017F000FFF738FD401B642801D90320EDE7C748F7
:1018000008380068C0F340400028F1D011E0FFF72D
:1018100029FD054606E0FFF725FD401B642801D998
:101820000320DAE7BD4808380068C0F340400028CC
:10183000F1D1207800F00200022869D1B748006891
:1018400000F00C0058B1B548006800F00C00082802
:1018500021D1B248001F006800F48000D8B9AF4819
:1018600008380068C0F3400020B1E068012801D0CA
:101870000120B2E7A9480838006820F0F800F822F3
:1018800092FAA2F2B2FA82F2216991400843A34986
:10189000083908603CE0E06828B30120A0490860EE
:1018A000FFF7E0FC054606E0FFF7DCFC401B0228E2
:1018B00001D9032091E7994808380068C0F3400037
:1018C0000028F1D095480838006820F0F800F82288
:1018D00092FAA2F2B2FA82F22169914008438F494A
:1018E0000839086014E000208D490860FFF7BAFC51
:1018F000054606E0FFF7B6FC401B022801D903208D
:101900006BE7864808380068C0F340000028F1D132
:10191000207800F0080008282CD16069A8B10120C7
:1019200080490860FFF79EFC054606E0FFF79AFC39
:10193000401B022801D903204FE778486C3000682B
:10194000C0F340000028F1D014E000207549086081
:10195000FFF788FC054606E0FFF784FC401B0228E1
:1019600001D9032039E76D486C300068C0F34000AE
:101970000028F1D1207800F00400042857D100BFDE
:101980000020009065483830006840F0805063497E
:10199000383108600846006800F08050009000BFB1
:1019A00000BF6148006840F480705F490860FFF73D
:1019B00059FC054606E0FFF755FC401B022801D9FB
:1019C00003200AE75848006800F480700028F2D02D
:1019D000207A524968310870A068A0B1FFF742FC34
:1019E000054608E0FFF73EFC401B41F28831884283
:1019F00001D90320F1E6494868300068C0F340008F
:101A00000028EFD013E0FFF72DFC054608E0FFF7B4
:101A100029FC401B41F28831884201D90320DCE6D1
:101A20003E4868300068C0F340000028EFD1A0694C
:101A3000F0B33A48006800F00C00082869D0A069AB
:101A4000022850D1002036490866FFF70BFC0546F6
:101A500006E0FFF707FC401B022801D90320BCE683
:101A60002E4808380068C0F340600028F1D1D4E95E
:101A70000701084347F6C07292FAA2F2B2FA82F264
:101A8000616A914008430122A16AC2EB51014FF4FF
:101A9000403292FAA2F2B2FA82F2914008434FF039
:101AA000706292FAA2F2B2FA82F2E16A914000E028
:101AB00031E008431949091F0860012018490866E8
:101AC000FFF7D0FB054606E0FFF7CCFB401B0228E2
:101AD00001D9032081E6114808380068C0F340604E
:101AE0000028F1D017E000200D490866FFF7BAFB87
:101AF000054606E0FFF7B6FB401B022801D903208C
:101B00006BE6064808380068C0F340600028F1D151
:101B100001E0012061E600205FE600000838024095
:101B200000004742800E474200700040042808D160
:101B30004FF0E021096941F004014FF0E02211610A
:101B400007E04FF0E021096921F004014FF0E022A5
:101B500011617047704770B504462546681EB0F1A4
:101B6000807F01D301200FE0681E4FF0E021486123
:101B70000F214FF0FF3000F043FD00204FF0E02137
:101B8000886107200861002070BD10B5FFF7E2FFF3
:101B900010BD70477047024600BF92F83800012818
:101BA00001D102207047012082F8380000BF0220D6
:101BB00082F839001068406820F07000136858609F
:101BC000106840680B681843136858601068806894
:101BD00020F0800013689860106880684B68184394
:101BE00013689860012082F8390000BF002082F855
:101BF000380000BF00BFD5E710B504460CB901207E
:101C000010BD94F8390028B9002084F83800204627
:101C100000F00CF8022084F83900211D206800F043
:101C2000A1FD012084F839000020E9E708B50A4A3F
:101C3000016891420FD100BF002100910749096856
:101C400041F02001054A11601146096801F02001A8
:101C5000009100BF00BF08BD0014004040380240A2
:101C600001460868C06840F001000A68D060086852
:101C7000006840F001000A6810600020704770475B
:101C800010B5044620680069C0F34000D8B1206850
:101C9000C068C0F34000B0B16FF002002168086175
:101CA000012020762068806900F0030018B12046EA
:101CB000FFF7E5FF05E0204600F0ADF8204600F014
:101CC000ABF80020207620680069C0F38000D8B10E
:101CD0002068C068C0F38000B0B16FF004002168D4
:101CE0000861022020762068806900F4407018B1F5
:101CF0002046FFF7C4FF05E0204600F08CF82046A0
:101D000000F08AF80020207620680069C0F3C00047
:101D1000D8B12068C068C0F3C000B0B16FF008004F
:101D200021680861042020762068C06900F0030063
:101D300018B12046FFF7A3FF05E0204600F06BF83E
:101D4000204600F069F80020207620680069C0F382
:101D50000010D8B12068C068C0F30010B0B16FF0B7
:101D6000100021680861082020762068C06900F40E
:101D7000407018B12046FFF782FF05E0204600F0D2
:101D80004AF8204600F048F80020207620680069D4
:101D900000F0010058B12068C06800F0010030B1C7
:101DA0006FF0010021680861204600F037F82068D4
:101DB0000069C0F3C01058B12068C068C0F3C010FB
:101DC00030B16FF08000216808612046FFF7E1FE26
:101DD00020680069C0F3801058B12068C068C0F363
:101DE000801030B16FF0400021680861204600F09B
:101DF00021F920680069C0F3401058B12068C0681C
:101E0000C0F3401030B16FF0200021680861204617
:101E1000FFF7C0FE10BD70477047000010B50446C4
:101E2000704884427ED170480078012817D16F48ED
:101E30000088401C6D4908800846008864280EDB35
:101E400000206B4908806B49088067490870674922
:101E500008806948007840F00300674908706748C7
:101E6000007800F00100A8B96348007800F0040091
:101E700080B96148007800F0010058B960480078E6
:101E800040B15D48007840F004005B4908700020D4
:101E90005C4908705948007800F00200A8B956481B
:101EA000007800F0080080B95348007800F0020084
:101EB00058B95348007840B14F48007840F00800C6
:101EC0004D4908700020504908704B48007800F0D8
:101ED000010040B14A48007828B14748007820F016
:101EE0000100454908704448007800F0020040B104
:101EF0004348007828B14048007820F002003E496D
:101F000008704248007801280BD102214048FFF7B1
:101F10009FF90C223F49404800F046FA00203B4917
:101F2000087000E05CE03448007800F0040088B1FC
:101F300034480078401C334908700846007864280B
:101F400008DB2D48007820F004002B4908700020A1
:101F50002C4908702848007800F0080088B12A4809
:101F60000078401C2849087008460078642808DB7F
:101F70002148007820F008001F49087000202249FD
:101F800008702648007828B125480078401C24496C
:101F9000087005E02248007810B100202049087040
:101FA00020480078012803D01E480078022817D165
:101FB0001D480088401C1C490880084600881928D4
:101FC0000EDB002003E00021184A1154401C1028A9
:101FD000F9DB002016490870124908701249088080
:101FE00010BD0000A80000201000002012000020FA
:101FF00014000020160000200E0000200F0000201A
:102000000500002006000020070000200D00002031
:102010000004024034010020E400002024000020DD
:10202000040000200A0000200200002024010020FB
:102030000900002070477047F8B5044600250026C7
:102040002068006800F001052068C06800F4807610
:102050007DB176B100BF002000902068006800903C
:1020600020684068009000BF00BFE06B40F00100B6
:10207000E06320680068C0F340052068406900F014
:1020800001067DB176B100BF002000902068006895
:10209000009020684068009000BF00BFE06B40F0F7
:1020A0000400E06320680068C0F380052068406990
:1020B00000F001067DB176B100BF002000902068DD
:1020C0000068009020684068009000BF00BFE06B8F
:1020D00040F00200E06320680068C0F3C00520689B
:1020E000406900F001067DB176B100BF002000908C
:1020F00020680068009020684068009000BF00BF22
:10210000E06B40F00800E06320680068C0F3401511
:102110002068C06800F020061DB116B1204600F00E
:10212000A3FB20680068C0F3C0152068C06800F0F9
:1021300080061DB116B1204600F09EFD20680068A3
:10214000C0F380152068C06800F040061DB116B1CC
:10215000204600F079FBE06B38B1202084F839008C
:1021600084F83A002046FFF766FFF8BD10B5044634
:102170000CB9012010BDA06900B100E000BF94F8C7
:10218000390028B9002084F83800204600F028F8EB
:10219000242084F839002068C06820F400502168A9
:1021A000C860204600F0B4FB2068006920F490402D
:1021B000216808612068406920F02A002168486190
:1021C0002068C06840F400502168C8600020E063C7
:1021D000202084F8390084F83A000020CAE7000083
:1021E00010B586B004461249206888421ED100BF4F
:1021F000002000900F48006840F010000D49086072
:102200000846006800F01000009000BF00BF4FF4C7
:10221000C0600190022002900120039003200490EE
:102220000720059001A90448FEF704FF06B010BD81
:1022300000100140443802400000024010B503463F
:1022400093F83A0020282FD101B10AB9012010BD1E
:1022500000BF93F83800012801D10220F7E70120E0
:1022600083F8380000BF99629A85DA850020D86328
:10227000222083F83A001868C06840F480701C6817
:10228000E0601868406940F001001C68606100BFB0
:10229000002083F8380000BF1868C06840F02000B4
:1022A0001C68E0600020D2E70220D0E710B50446A9
:1022B000384884426DD138480078B0B93748007842
:1022C00055280ED1354801783548364A1278815460
:1022D00034480078401C3349087001202E490870AA
:1022E00041E065202C4908703DE02B48007801282A
:1022F00016D12A480078AA280ED128480178284803
:10230000284A1278815427480078401C25490870D3
:1023100002202149087026E065201F49087022E04C
:102320001D48007802281ED11E4800780B280FDBBC
:102330001A4800780A2807D11A4800780B2803D1D8
:102340000320154908700EE06520134908700AE063
:10235000124801781248134A1278815411480078C3
:10236000401C104908700C48007865280CD10020EA
:1023700003E000210A4A1154401C1028F9DB002018
:102380000849087004490870012204490148FFF710
:1023900055FF10BDE40000200A00002008000020C6
:1023A000240100200900002010B5034693F83900ED
:1023B000202823D101B10AB9012010BD00BF93F834
:1023C0003800012801D10220F7E7012083F8380006
:1023D00000BF19629A84DA840020D863212083F830
:1023E000390000BF002083F8380000BF1868C068BB
:1023F00040F080001C68E0600020DEE70220DCE79F
:10240000704700BFFEE7000010B50D480D49086099
:102410000620486000210B488160C1604FF4E02134
:1024200001614FF4A0014161002181610121C1617D
:102430000162002141628162C162FEF73DFB10BD75
:10244000006400406800002000B587B000BF002095
:1024500001902E48006840F080002C490860084632
:10246000006800F08000019000BF00BF00BF0020A6
:1024700001900846006840F00200086008460068C5
:1024800000F00200019000BF00BF00BF00200190DB
:102490000846006840F0010008600846006800F047
:1024A0000100019000BF00BF00BF0020019008465E
:1024B000006840F4807008600846006800F480708E
:1024C000019000BF00BF012203211148FEF7C4FEA6
:1024D000032002900120039000200490059002A99F
:1024E0000B48FEF7A7FD012250210A48FEF7B4FE73
:1024F000502002900120039004900320059002A92F
:102500000448FEF797FD07B000BD000030380240D8
:10251000000402400020024010B5012200211320D7
:10252000FEF70CFF1320FEF7FCFE02220021142010
:10253000FEF704FF1420FEF7F4FE0322002115200D
:10254000FEF7FCFE1520FEF7ECFE0422002116200B
:10255000FEF7F4FE1620FEF7E4FE002201212520FE
:10256000FEF7ECFE2520FEF7DCFE032201213720DA
:10257000FEF7E4FE3720FEF7D4FE10BD1CB50B4875
:102580000B49086042F22830486000210848816009
:102590006421C160FFF730FB2020009000200190F3
:1025A00069460348FFF7F7FA1CBD0000001400401D
:1025B000A800002010B50948094908604FF4E1302F
:1025C0004860002106488160C16001610C214161C1
:1025D00000218161C161FFF7C9FD10BD00100140FC
:1025E000E400002000BFFEE710B5FFF7C1F810BD02
:1025F00002480068C0F30220704700000CED00E0C4
:1026000010B5002807DA0A07140E054A00F00F0378
:102610001B1FD45403E00A07130E024A135410BDC3
:1026200018ED00E000E400E010B5FEF721FEFFF732
:10263000ACFA10BD10B592B000BF002000902A483F
:10264000006840F08050284908600846006800F0A3
:102650008050009000BF00BF00BF002000902348C2
:10266000006840F44040214908600846006800F4D2
:102670004040009000BF00BF01200690079002205C
:102680000C9041050D9119210E914FF4B4710F91E9
:10269000022110910421119106A8FFF779F8FEF7A5
:1026A0009FFE0F20019002200290002003904FF423
:1026B000A05004904FF480500590052101A8FEF72A
:1026C000E3FEFEF7B3FF4FF47A71B0FBF1F420465E
:1026D000FFF741FA0420FFF729FA00221146501EA5
:1026E000FEF72CFE12B010BD4038024000700040D2
:1026F0001448006840F470001249086012480068ED
:1027000040F001001049086000200F4908310860BE
:102710000D4800680D4908400B4908600C48091D28
:102720000860081F006820F48020091F086000204E
:1027300005490C3108604FF000600249803908609B
:102740007047000088ED00E000380240FFFFF6FE11
:102750001030002410B50248FFF792FA10BD0000B7
:10276000A8000020002202682C4B98420ED0B0F145
:10277000804F0BD02A4B984208D02A4B984205D064
:10278000294B984202D0294B984201D1012300E005
:1027900000231BB122F070024B681A431F4B984272
:1027A00020D0B0F1804F1DD01D4B98421AD01D4B48
:1027B000984217D01C4B984214D01C4B984211D011
:1027C0001B4B98420ED01B4B98420BD01A4B984291
:1027D00008D01A4B984205D0194B984202D0194B99
:1027E000984201D1012300E000231BB122F4407282
:1027F000CB681A4302608B68C3620B688362074B25
:10280000984202D0094B984201D1012300E00023F5
:102810000BB10B6903630123436170470000014062
:102820000004004000080040000C0040000401408B
:1028300000400140004401400048014000180040B1
:10284000001C00400020004010B504462068C0680D
:1028500020F040002168C860202084F8390020461C
:10286000FFF7CEFD002010BD70B5044694F83A0085
:1028700022284AD1A068B0F5805F13D1A56A2069EB
:1028800040B920684068C0F308002880A06A801C16
:10289000A06219E020684068C0B22880A06A401C8D
:1028A000A06211E0206938B920684068C1B2A26A0C
:1028B000501CA062117007E02068406800F07F01A2
:1028C000A26A501CA0621170E08D401E80B2E085AB
:1028D000C8B92068C06820F020002168C86020685E
:1028E000C06820F480702168C8602068406920F0CA
:1028F000010021684861202084F83A002046FFF753
:10290000D5FC002070BD0020FCE70220FAE70000A3
:102910002DE9F041044600252068056925F440555D
:10292000E0680543206805612068C56849F20C60CD
:1029300085432169A068084361690843E169084348
:1029400005432068C5602068456925F44075A06985
:10295000054320684561E069B0F5004F7ED1C44968
:102960002068884203D0C349206888425DD1FEF7C1
:102970008FFE00EBC00101EB001061684900B0FB65
:10298000F1F06421B0FBF1F00601FEF781FE00EBEF
:10299000C00101EB001061684900B0FBF1F7FEF7E0
:1029A00077FE00EBC00101EB001061684900B0FB4D
:1029B000F1F06421B0FBF1F000EBC00101EB00107D
:1029C000A7EB8000322101EBC0006421B0FBF1F0E5
:1029D00000F0F80006EB4006FEF75AFE00EBC001DF
:1029E00001EB001061684900B0FBF1F7FEF750FE03
:1029F00000EBC00101EB001061684900B0FBF1F091
:102A00006421B0FBF1F000EBC00101EB0010A7EB7B
:102A10008000322101EBC0006421B0FBF1F000F036
:102A2000070030442168886020E1FEF71BFE00EBC0
:102A3000C00101EB001061684900B0FBF1F06421B6
:102A4000B0FBF1F00601FEF70DFE00EBC00101EB5B
:102A5000001061684900B0FBF1F700E045E0FEF7C7
:102A600001FE00EBC00101EB001061684900B0FB02
:102A7000F1F06421B0FBF1F000EBC00101EB0010BC
:102A8000A7EB8000322101EBC0006421B0FBF1F024
:102A900000F0F80006EB4006FEF7E4FD00EBC00195
:102AA00001EB001061684900B0FBF1F7FEF7DAFDB9
:102AB00000EBC00101EB001061684900B0FBF1F0D0
:102AC0006421B0FBF1F000EBC00101EB0010A7EBBB
:102AD0008000322101EBC0006421B0FBF1F000F076
:102AE0000700304421688860C0E06149206888425E
:102AF00003D06049206888425CD1FEF7C9FD00EB35
:102B0000C00101EB001061688900B0FBF1F6FEF72F
:102B1000BFFD00EBC00101EB001061688900B0FB54
:102B2000F1F06421B0FBF1F000EBC00101EB00100B
:102B3000A6EB8000322101EB00106421B0FBF1F024
:102B400000F0F006FEF7A4FD00EBC00101EB001061
:102B500061688900B0FBF1F06421B0FBF1F006EB95
:102B60000016FEF795FD00EBC00101EB0010616857
:102B70008900B0FBF1F7FEF78BFD00EBC00101EB24
:102B8000001061688900B0FBF1F06421B0FBF1F046
:102B900000EBC00101EB0010A7EB8000322101EB3C
:102BA00000106421B0FBF1F000F00F003044216808
:102BB00088605BE0FEF756FD00EBC00101EB001002
:102BC00061688900B0FBF1F6FEF74CFD00EBC00137
:102BD00001EB001061688900B0FBF1F06421B0FBEB
:102BE000F1F000EBC00101EB0010A6EB80003221F8
:102BF00001EB00106421B0FBF1F000F0F006FEF7ED
:102C000031FD00EBC00101EB001061688900B0FBF1
:102C1000F1F06421B0FBF1F006EB0016FEF722FDA7
:102C200000EBC00101EB001061688900B0FBF1F717
:102C3000FEF718FD00EBC00101EB00106168890090
:102C4000B0FBF1F06421B0FBF1F000EBC00101EB4F
:102C50000010A7EB8000322101EB00106421B0FBD3
:102C6000F1F000F00F00304421688860BDE8F08189
:102C70000010014000140140014691F8390021285C
:102C80002CD18868B0F5805F0FD10A6A1088C0F334
:102C900008000B685860086918B9086A801C086247
:102CA00009E0086A401C086205E00B6A581C0862CB
:102CB00018780B685860C88C401E80B2C88458B918
:102CC0000868C06820F080000B68D8600868C06899
:102CD00040F040000B68D860002070470220FCE7FD
:102CE00010B50248FFF7A8F910BD0000E40000206D
:102CF00000BFFEE702E008C8121F08C1002AFAD18F
:102D000070477047002001E001C1121F002AFBD16B
:102D1000704700002DED068BFEF7B2FAFFF78AFC34
:102D2000FFF792FBFFF786FCFFF76EFBFFF742FC15
:102D3000FFF724FCFFF7F0FBFD48FE494863FE481F
:102D40000863FDF7EBFB0021FA48FDF7C3FF012103
:102D5000F848FDF7BFFF0122F849F948FFF76EFA7E
:102D6000F848FEF77DFFF848007800287ED14FF440
:102D70007A60FEF751F940F20560EF49086048605B
:102D800000208860C860082008612F200875052190
:102D9000E9484175602181750021C1750176417650
:102DA0008176C176E348FEF72DF86420FEF734F90A
:102DB00040F20560E0490860486000208860C86013
:102DC000082008612F2008750E21DB48417560211D
:102DD00081750021C175012101760021417681763E
:102DE000C176D448FEF70EF86420FEF715F940F2DC
:102DF0000560D1490860486000208860C8600820EC
:102E00000861232008750321CB4841756021817535
:102E10000021C175B82101760B2141760021817610
:102E2000C176C448FDF7EEFF6420FEF7F5F80020F8
:102E3000C149086048608860C860082008610120B6
:102E400008750021BC4841758175C17501764176D0
:102E50008176C176B748FDF7D5FF6420FEF7DCF830
:102E600040F20120B4490860486000E04FE00020D3
:102E70008860C86008200861062008750021AE48F7
:102E800041758175C175017641768176C176A94813
:102E9000FDF7B8FF6420FEF7BFF840F20120A64915
:102EA0000860486000208860C8600820086107202A
:102EB00008750021A04841758175C175017641767C
:102EC0008176C1769B48FDF79DFF6420FEF7A4F84C
:102ED00040F2013098490860486000208860C8606E
:102EE000082008610120087500219348417581750B
:102EF000C175017641768176C1768E48FDF782FFF5
:102F00004FF4FA60FEF788F801208F49087015E247
:102F10008E48007803287DD18D48007800F00300AA
:102F20000028F8D101208B49087000208A490880C8
:102F30008A4908808A4908808548007840F0010065
:102F4000834908700846007840F002000870854800
:102F5000407A0A2804D1002210218348FEF77CF928
:102F60008048407A20B9012210217F48FEF774F989
:102F70007C48C178807801EB002000B27749088056
:102F80000846B0F9000040F6AC51884202DB084622
:102F900072490880714800882E2110FB01F0C1178A
:102FA000724A03C24FF6FF720023704903C9FDF74E
:102FB0001BF96F49086008460068C0EB00406B4988
:102FC000D1E900311C1A61EBE0714FF480724FF0CF
:102FD00000032046FDF708F9664908604FF4807247
:102FE0000023624903C9FDF7FFF8634802605D48AA
:102FF0004179007901EB002000B259490880084668
:10300000B0F90000B0F5E16F02DB4FF4E160088039
:10301000534800E02BE1B0F90000FDF788F99FED7F
:10302000570B53EC102BFDF710F99FED560B53EC9B
:10303000102BFDF70AF9FDF78BF9544A03C24FF63E
:10304000FF720023514903C9FDF7CEF850490860CB
:1030500008460068C0EB00404C49D1E900311C1A19
:1030600061EBE0714FF480724FF000032046FDF7F2
:10307000BBF8484908604FF480720023434903C9F4
:10308000FDF7B2F8444802603220FDF7C5FF40F278
:10309000056029490860486000208860C8600820F1
:1030A0000861232008751C21234841756021817522
:1030B0000021C175304801781F4801762D480178FC
:1030C0001D4841762A4801781B4881760021C17647
:1030D0001848FDF797FE3148007810B901202F49B4
:1030E00008704FF49670FDF797FF1E488079FF280F
:1030F00058D11C48C079FF2854D140F201300E4904
:103100000860486000208860C860082008610120CD
:1031100008750021084841758175C17501764176B1
:103120008176C1760348FDF76DFE40F6B83037E092
:1031300060010020680000204401002008000020F9
:10314000E4000020A8000020050000200A00002064
:103150000E00002010000020120000202600002099
:103160002800002024010020002002403800002018
:103170004000002044000020480000200000000023
:1031800000403E40333333333333124030000020AD
:103190004C0000205000002054000020240000209B
:1031A000FDF73AFF40F201206549086048600020C1
:1031B0008860C860082008610F20087500216048F9
:1031C000417560480078C0F1FF015D4881755E4837
:1031D0000078C0F1FF015A48C1755C480078C0F121
:1031E000FF0157480176FF2141768176C176584824
:1031F000FDF708FE4FF49670FDF70EFF40F2012038
:103200004F490860486000208860C8600820086155
:103210005F20087500214A4841754A480078C0F18E
:10322000FF014748817548480078C0F1FF014448D4
:10323000C17546480078C0F1FF0141480176FF2181
:1032400041768176C1764248FDF7DCFD4148807ABF
:1032500041490870002003E000213E4A1154401CFF
:103260001028F9DB00203D4908703D4908703D48B1
:10327000007832281CDB40F2056031490860486064
:1032800000208860C86008200861402008750C2173
:103290002B484175602181750021C1750176417609
:1032A0008176C1762A48FDF7ADFD00202D490870D2
:1032B0002D48007802282DD12C4A1168002901DB05
:1032C0000A4600E04A422A4B1B68981A002801DB94
:1032D000024600E04242B2F57A7F18DC55202549CB
:1032E0000870AA20487001208870C87000200871FA
:1032F00048718871C8710872487288720A20C87251
:1033000001201D49087000201749087002E00120C3
:103310001549087010480078012802D002280CD105
:1033200005E0012240211548FDF796FF05E0002247
:1033300040211248FDF790FF00BF00BFE8E5000004
:103340004401002054000020500000204C000020C8
:1033500068000020240100201C000020090000203B
:103360000A0000200400002024000020200000208B
:1033700038000020340100200D0000200020024011
:10338000000000000102030401020304060708090B
:10339000B03300080000002068000000F42C000892
:1033A000183400086800002020050000042D0008E3
:1033B000000000000000000000000000000000000D
:1033C00000000000000000000000000000000000FD
:1033D00000000000000000000000000000000000ED
:1033E00000000000000000000000000000000000DD
:1033F00000000000000000000000000000000000CD
:1034000000000000000000000000000000000000BC
:08341000000000000024F4009C
:04000005080001AD41
:00000001FF
